:020000040800F2
:1000000000000320DD020008E3020008E702000808
:10001000590300085D030008A50300080000000064
:10002000000000000000000000000000ED030008D8
:10003000F103000800000000F50300080523000894
:10004000090400080904000809040008090400085C
:100050000904000809040008C9250008090400086B
:10006000090400080904000809040008090400083C
:10007000090400080904000809040008090400082C
:10008000090400080904000809040008090400081C
:10009000090400080904000809040008090400080C
:1000A00009040008090400080904000809040008FC
:1000B00009040008090400080904000809040008EC
:1000C00009040008090400080904000809040008DC
:1000D00009040008090400080904000809040008CC
:1000E00009040008090400080904000809040008BC
:1000F00009040008090400080904000809040008AC
:10010000090400080904000809040008090400089B
:10011000090400080904000809040008090400088B
:10012000090400080904000809040008090400087B
:10013000090400080904000809040008090400086B
:10014000090400080904000809040008090400085B
:10015000090400080904000809040008090400084B
:10016000090400080904000809040008090400083B
:100170000904000809040008090400080000000040
:10018000090400080904000809040008090400081B
:10019000090400080904000809040008090400080B
:1001A00009040008090400080904000800B583B028
:1001B00001F04CFF384B394A1360394A1360394912
:1001C00000E02146384B99420BD20A684B6801F196
:1001D0000C0488689842F4D952F8041B43F8041BB5
:1001E000F8E72E4B1A68314B9A4200D0FEE72C4BB1
:1001F0001A682F4B9A42F9D1274B2E4A13602E4A88
:1002000013602E4A05E0002043F8040B9A42FAD806
:100210000A462B4B9A4204D2114651F8083B5268C9
:10022000F4E7244B1B6813B9234B1B6803B1FEE7AB
:1002300002F060F8694601A801F098FE214C224BBB
:10024000E41AA410002504E01F4B53F8253098470A
:100250000135AC42F8DC1D4C1D4BE41AA4100025FE
:1002600004E01B4B53F8253098470135AC42F8DCCD
:100270000099019802F040F90546164C164BE41A15
:10028000A41004E0013C144B53F824309847002C90
:10029000F8DC284601F03CFEBABADECA00000020B5
:1002A000740000200C04000824040008785634125E
:1002B0003254769878000020EC01002024040008D5
:1002C000340400083404000834040008340400082E
:1002D00034040008340400083404000808B5FFF7AB
:1002E00065FF00BEFEE71EF0040F0CBFEFF30880B1
:1002F000EFF309807146414A10472DE9F04182B081
:1003000004468846124B5E6B9F6B9D6A1B6B13F015
:10031000020F03D00E4BDB6A002B0CDB0D4801F003
:1003200037FECDF800803B4632462946204601F094
:1003300099FE00BEFEE74BF6AB6101F00DFF002811
:10034000ECD0034B4FF00042DA6202B0BDE8F0811E
:1003500000ED00E0F83F000800BEFEE71EF0040FCD
:100360000CBFEFF30880EFF309807146244A104771
:100370002DE9F04182B004468846084B5E6B9F6BC6
:100380009D6A074801F004FECDF800803B463246E6
:100390002946204601F066FE00BEFEE700ED00E0C3
:1003A000084000081EF0040F0CBFEFF30880EFF3C5
:1003B00009807146134A10472DE9F04182B0044686
:1003C0008846084B5E6B9F6B9D6A074801F0E0FD15
:1003D000CDF800803B4632462946204601F042FED9
:1003E00000BEFEE700ED00E01440000800BEFEE79E
:1003F00000BEFEE700BEFEE770470000FB020008FB
:0C04000071030008B903000800BEFEE70D
:10040C00C44000080000002078000020C440000810
:10041C00000000100000001078000020F001002007
:08042C000000001000000010A8
:1004400010B50446074B1868074BA3FB0030800922
:1004500000F0BCF8002221464FF0FF3000F05AF8BF
:10046000002010BD0C000020D34D621008B50B4BCE
:100470001A6842F400721A601A6842F480621A60C4
:100480001A6842F480721A60032000F025F80F20E9
:10049000FFF7D6FF02F0BAF8002008BD003C02408A
:1004A000024A136801331360704700BF180100202F
:1004B000014B1868704700BF1801002010B582B0CA
:1004C0000190FFF7F5FF0446FFF7F2FF001B019BC9
:1004D0009842F9D302B010BD10B50446C31E042BD8
:1004E0000FD80A4AD36823F4E0631B041B0C2402D0
:1004F00004F4E064234343F0BF6343F40033D36068
:1005000010BDA421024801F039FDEAE700ED00E04A
:10051000983D000870B505460C4616460F2A0FD8C0
:100520000F2C12D81B4BDB68C3F30223C3F1070265
:10053000042A28BF0422191D06290BD9033B0AE00F
:10054000BC21154801F01AFDEAE7BD21124801F06F
:1005500015FDE7E700234FF0FF3101FA02F224EA2C
:1005600002049C4001FA03F326EA03063443002DFB
:1005700008DB2401E4B205F1604505F5614585F825
:10058000004370BD05F00F052401E4B2034B5C5538
:10059000F7E700BF00ED00E0983D000814ED00E033
:1005A00010B5041E08DB04F01F0264090123934008
:1005B000044A42F8243010BDD021034801F0DEFC8B
:1005C000F1E700BF00E100E0983D00080138B0F11C
:1005D000807F0AD2064B5860064AF02182F8231029
:1005E0000020986007221A6070470120704700BF02
:1005F00010E000E000ED00E010B50446042800D053
:1006000038B9042C0BD0094A136823F00403136093
:1006100010BD40F2B311064801F0B0FCF1E7034A07
:10062000136843F004031360F2E700BF10E000E03A
:10063000983D00082DE9F04782B080460E46BE4B3B
:1006400098422BD003F58063984227D003F580634E
:10065000984223D003F5806398421FD003F580634E
:1006600098421BD003F58063984217D003F580634E
:10067000984213D003F5806398420FD003F580634E
:1006800098420BD003F58063984207D003F580634E
:10069000984203D0C521A94801F070FC338833B3D8
:1006A0007368012B1ED9112B1CD0022B1AD0122BD0
:1006B00018D0A34A934215D002F58012934211D06C
:1006C00002F5801293420DD0A2F5F812934209D0A0
:1006D00002F58012934205D002F58012934201D0B8
:1006E000032B09D1B368022B0BD800244FE0C6219D
:1006F000924801F043FCD3E7C721904801F03EFC4B
:10070000F0E7C8218D4801F039FCEEE7D9218B488C
:1007100001F034FC69E0EC21884801F02FFC94E002
:10072000092300E000238B4003430232854941F84E
:100730002230854B1A68FB4303EA0201706810F40B
:10074000803F01D047EA02017F4A1160526803EA04
:100750000201706810F4003F01D047EA02017A4AB2
:100760005160926803EA0201706810F4801F01D0A2
:1007700047EA0201744A9160D2681340716811F42B
:10078000001F01D047EA02036F4AD36001340F2CE7
:1007900000F2E0800125A54037682F40BD42F5D129
:1007A0007368022B01D0122B2FD13369EBB1092BC7
:1007B0001BD0012B19D0022B17D0032B15D0042BE3
:1007C00013D0052B11D0062B0FD0072B0DD0082BE3
:1007D0000BD00A2B09D00B2B07D00C2B05D00D2BDF
:1007E00003D00F2B01D00E2B90D1E208083258F81D
:1007F000220004F0070399000F238B4020EA030036
:1008000033698B40034348F82230D8F800204FEA80
:10081000440A4FF0030909FA0AF96FEA090909EADB
:100820000202736803F0030303FA0AF31343C8F8E0
:10083000003073685A1E012A03D9112B01D0122BE4
:1008400018D1F368032B3FF666AFD8F8082009EA01
:100850000202F36803FA0AF31343C8F80830D8F821
:10086000042022EA05027368C3F30015A54015436E
:10087000C8F80450D8F80C3009EA0309B36803FA41
:100880000AF343EA0903C8F80C30736813F0805F79
:100890003FF47CAF002301932C4B5A6C42F480420E
:1008A0005A645B6C03F480430193019BA208911C82
:1008B000244B53F8210004F0030399000F238B40CD
:1008C00020EA03001C4B98453FF42CAF03F58063EE
:1008D000984522D003F58063984520D003F58063C6
:1008E00098451ED003F5806398451CD003F58063BE
:1008F00098451AD003F58063984518D003F58063B6
:10090000984516D003F58063984521D003F58063A0
:1009100098453FF405AF0A2305E7012303E70223C7
:1009200001E70323FFE60423FDE60523FBE6062398
:10093000F9E60723F7E600BF00000240CC3D0008BF
:100940000000111000380140003C01400038024016
:100950000823E8E602B0BDE8F08700BF08B5054B04
:100960005B69034200D108BD024B586101F032FEC1
:10097000F9E700BF003C014003685A6912F4806F38
:1009800001D1002070476FF480625A610423036430
:1009900000230363202280F83D2080F83C300120B2
:1009A0007047F8B506460C4617461D461CE02DB1AB
:1009B000FFF77EFD069BC01AA84215D900233363BA
:1009C000202286F83D2086F83C3003201AE0336868
:1009D0009B6924EA03039BB2B3FA83F35B099F424A
:1009E0000FD1B5F1FF3FE2D1C4F30743012BEED1A4
:1009F00033685B6924EA03039BB2B3FA83F35B09B0
:100A0000EDE70020F8BDF8B504460D4616461F4632
:100A100032E01A6842F400721A6023686FF4806250
:100A20005A610423236400232363202284F83D2099
:100A300084F83C3001202DE026B1FFF739FDC01BC2
:100A4000B04219D900232363202284F83D2084F882
:100A50003C3003201EE023689B6925EA03039BB218
:100A6000003318BF0123A3B123685A6912F4806FC1
:100A7000CFD1B6F1FF3FDFD1C5F30743012BEAD158
:100A800023685B6925EA03039BB2003318BF012387
:100A9000E9E70020F8BD0000F0B583B004460D463C
:100AA00016461F46C36A042B0DD0012B0BD013F53D
:100AB000803F08D0036B122B0AD10268136843F4FD
:100AC0008073136004E02268136843F4807313603A
:100AD0000097334600224FF001112046FFF761FFD7
:100AE00078BB2369B3F5804F10D1236805F0FE056C
:100AF0001D613B46324615492046FFF784FF0346F9
:100B000000B3236C042B1AD003231BE0EB112268E3
:100B100003F0060343F0F00313613B4632460C49F1
:100B20002046FFF770FF30B1236C042B01D0032364
:100B300008E0012306E02368EDB21D61D9E7012337
:100B400000E00323184603B0F0BD00BF020001001F
:100B50000800010070B504460D46164623685B691F
:100B600013F0800F19D12046FFF706FFB8B9B5F191
:100B7000FF3FF3D025B1FFF79BFC801BA842EDD9C6
:100B8000236C43F02003236400232363202284F892
:100B90003D2084F83C30032000E0002070BD01209F
:100BA000FCE700002DE9F04184B004460E461746EC
:100BB00098460B9D0268136843F4806313600268D3
:100BC000136843F48073136000950A9B00224FF072
:100BD0000111FFF7E6FE00287ED1F6B2236806F089
:100BE000FE021A612B460A9A3F492046FFF70BFF87
:100BF00030B1236C042B01D003236EE001236CE0A1
:100C00000023039323685A6903929B690393039B10
:100C10002A460A992046FFF79DFF58B1236C042B02
:100C200001D0032359E02268136843F40073136072
:100C3000012352E0B8F1010F0DD12368FFB21F610B
:100C40002A460A992046FFF785FF20B3236C042B20
:100C50001AD0032341E023683A0A1A612A460A9906
:100C60002046FFF777FF58B1236C042B01D00323F4
:100C700033E02268136843F40073136001232CE00F
:100C80002368FFB21F61DBE72268136843F4007337
:100C90001360012321E02268136843F4807313601A
:100CA00000950A9B00224FF001112046FFF779FEC4
:100CB000B8B9236846F001061E612B460A9A0A4914
:100CC0002046FFF7A0FE034638B1236C042B01D069
:100CD000032302E0012300E00323184604B0BDE82B
:100CE000F0810323F9E700BF0200010070B504465C
:100CF0000D46164623685B6913F0040F19D1204690
:100D0000FFF73AFEB8B9B5F1FF3FF3D025B1FFF7D1
:100D1000CFFB801BA842EDD9236C43F02003236452
:100D200000232363202284F83D2084F83C300320F4
:100D300000E0002070BD0120FCE770B505460C46C0
:100D400016462B685A6912F0400F22D15A6912F0E8
:100D5000100F11D124B1FFF7ABFB801BA042F0D9DB
:100D60002B6C43F020032B64202385F83D300023B7
:100D700085F83C30032070BD6FF010025A610023EB
:100D80002B642B63202285F83D2085F83C30012020
:100D9000F1E70020EFE77047002800F0EB8010B586
:100DA00004460368744A93420CD002F58062934271
:100DB00008D002F58062934204D040F265116F487A
:100DC00001F0DCF86368013B6D4A934267D8A36881
:100DD00013B1B3F5804F68D1E36823F47F7323F038
:100DE0000303002B67D12369B3F5804F02D0B3F51D
:100DF000404F66D16369012B69D8A36933F0FE03C4
:100E00006BD1E3690BB1402B6DD1236A0BB1802B01
:100E10006FD194F83D30002B71D0242384F83D30FD
:100E20002268136823F00103136000F03DFE554B68
:100E3000A3FB00239B0C226853606168524A9142D5
:100E400063D801332268136263684F4A934266D8BD
:100E50005B00B0FBF3F040F6FC73184200D10420B5
:100E60002368D861E369216A22680B431360236910
:100E7000E16822680B4393606369A16922680B43B0
:100E8000D3602268136843F00103136000202064DC
:100E9000202384F83D30206384F83E0010BD4FF4D9
:100EA000B371364801F06AF891E740F267113348B0
:100EB00001F064F890E74FF4B471304801F05EF847
:100EC00091E740F269112D4801F058F892E74FF48C
:100ED000B5712A4801F052F88FE740F26B112748AC
:100EE00001F04CF88DE74FF4B671244801F046F854
:100EF0008BE740F26D11214801F040F889E784F852
:100F00003C302046FFF747FF87E74FF4967202FB1D
:100F100003F31E4AA2FB03239B09013392E7A16856
:100F200089B903EB4302B0FBF2F2C2F30B02B2FA4F
:100F300082F25209E2B991B903EB4303B0FBF3F03B
:100F400040F400408CE703EB830202EB8202B0FB2B
:100F5000F2F2C2F30B02B2FA82F25209EAE703EBB1
:100F6000830303EB8303B0FBF3F040F4404077E7E7
:100F7000012075E70120704700540040FC3D000847
:100F80007F1A060083DE1B43A0860100D34D62104A
:100F90002DE9F04184B00446884617461D46FFF708
:100FA00087FA94F83D30DBB2202B05D04FF00208D1
:100FB000404604B0BDE8F0810646009019230122A6
:100FC0004A492046FFF7EDFC002840F0888094F85D
:100FD0003C30012B00F08680012384F83C302268ED
:100FE000136823F400631360212384F83D30102339
:100FF00084F83E3000232364A3F58033E362334654
:101000000A9A41462046FFF747FD804670B1236C9F
:10101000042B05D0002384F83C304FF00308C7E7C9
:10102000002384F83C304FF00108C1E7002303930C
:1010300023685A6903929B690393039B15E0236C11
:10104000042B02D04FF00308B2E72268136843F480
:10105000007313604FF00108AAE71D461746324699
:101060000A992046FFF742FEE8B955B332460A997D
:101070002046FFF76FFD0028E1D13A46236812F8B9
:10108000011B19616B1E9BB22168486910F0040FA7
:10109000E3D02BB17B780B61023DADB20237DEE7C6
:1010A0001D461746DBE7236C042B02D04FF00308E4
:1010B0007EE72268136843F4007313604FF0010861
:1010C00076E72268136843F400731360202384F8E2
:1010D0003D30002384F83E3084F83C3068E74FF020
:1010E000020865E74FF0020862E700BF0200100047
:1010F0002DE9F04786B005468946924698460E9EF1
:10110000BDF83C40FFF7D4F90746B8F1010F02D013
:10111000B8F1100F0AD195F83D30DBB2202B0BD07F
:101120004FF00208404606B0BDE8F08740F6CC110B
:101130008D4800F023FFEEE70097192301228B4929
:101140002846FFF72EFC002840F0028195F83C303D
:10115000012B00F00081012385F83C302A681368D8
:1011600023F400631360222385F83D30402385F883
:101170003E3000232B64A3F58033EB620197109B74
:1011800000934346524649462846FFF70BFD8046EA
:1011900070B12B6C042B05D0002385F83C304FF048
:1011A0000308BFE7002385F83C304FF00108B9E79A
:1011B00064B9002302932B685A6902929A690292D9
:1011C000029A1A6842F400721A606FE0012C0AD089
:1011D000022C1AD0002305932B685A6905929B694B
:1011E0000593059B62E02A68136823F4806313600B
:1011F000002303932B685A6903929A690392039A16
:101200001A6842F400721A6050E02A68136823F4E6
:10121000806313602A68136843F40063136000233B
:1012200004932B685A6904929B690493049B3DE0E4
:101230003A4610992846FFF780FD30B92B681B69A4
:1012400006F8013B013CA4B230E02B6C202B02D00D
:101250004FF0010866E74FF0030863E70097109B23
:10126000002243492846FFF79CFB002876D12A68D4
:10127000136843F4007313602B681A69334603F84C
:10128000022B2A6812697270023CA4B21E460DE05D
:101290002A68136843F4007313602B681B6973702A
:1012A0002B681B69B370033CA4B20336002C46D0F4
:1012B000032C20D8012CBBD0022CCFD00097109B40
:1012C00000222B492846FFF76CFB002849D12A68E9
:1012D000136823F4806313602B681B6933700097D5
:1012E000109B002222492846FFF75BFB0028CFD045
:1012F0004FF0030816E73A4610992846FFF71DFD00
:1013000088B92B681A69334603F8012B621E92B222
:101310002968486910F0040F0ED00A6902361A7065
:10132000023CA4B2C2E72B6C202B02D04FF0010884
:10133000F8E64FF00308F5E614461E46B6E720230C
:1013400085F83D30002385F83E3085F83C30E9E6ED
:101350004FF00208E6E64FF00208E3E64FF003081C
:10136000E0E64FF00308DDE6FC3D00080200100057
:101370000400010030B583B0044603680F2B29D860
:10138000236813F0010F3DD06368012B01D9052BB1
:1013900025D1A24B9B6803F00C03042B29D09F4B53
:1013A0009B6803F00C03082B1ED022799C4B1A700B
:1013B0006368002B50D0FFF77BF80546974B1B68FE
:1013C00013F4003F1ED1FFF773F8401B6428F5D9D2
:1013D0000320E3E1F521934800F0D0FDD0E7FA21A6
:1013E000904800F0CBFDD4E78C4B5B6813F4800F82
:1013F000DBD08A4B1B6813F4003F03D06368002BDB
:1014000000F0C781236813F0020F5CD0E368012B62
:1014100031D823691F2B34D8804B9B6813F00C0FF5
:101420003AD07E4B9B6803F00C03082B2FD0E36867
:10143000002B73D07C4B01221A60FFF739F8054668
:10144000764B1B6813F0020F59D1FFF731F8401BA0
:101450000228F5D90320A1E1FFF72AF805466F4BD2
:101460001B6813F4003FCDD0FFF722F8401B64281F
:10147000F5D9032092E14FF496716A4800F07EFDA1
:10148000C7E740F22D11674800F078FDC4E7634BD1
:101490005B6813F4800FCAD1604B1B6813F0020F16
:1014A00003D0E368012B40F076815C48036823F0A9
:1014B000F8032169F82292FAA2F2B2FA82F201FA52
:1014C00002F213430360236813F0080F50D06369DE
:1014D000012B35D86369002B38D0544B01221A6098
:1014E000FEF7E6FF05464D4B5B6F13F0020F3FD151
:1014F000FEF7DEFF401B0228F5D903204EE14748E6
:10150000036823F0F8032169F82292FAA2F2B2FAF2
:1015100082F201FA02F213430360D4E7424B002245
:101520001A60FEF7C5FF05463C4B1B6813F0020F1F
:10153000C9D0FEF7BDFF401B0228F5D903202DE1DD
:1015400040F26D11374800F019FDC3E7374B002218
:101550001A60FEF7ADFF0546304B5B6F13F0020FCC
:1015600006D0FEF7A5FF401B0228F5D9032015E1A0
:10157000236813F0040F5FD0A368012B01D9052B5A
:101580001FD100230193254B1A6C42F080521A643C
:101590001B6C03F080530193019B254A136843F4AD
:1015A00080731360FEF784FF0546214B1B6813F41C
:1015B000807F0CD1FEF77CFF401B0228F5D9032069
:1015C000ECE040F29711174800F0D8FCD9E7227AF6
:1015D000184B1A70A36883B1FEF76AFF05460F4BDC
:1015E0001B6F13F0020F27D1FEF762FF401B41F281
:1015F00088339842F3D90320D0E0FEF759FF05461F
:10160000064B1B6F13F0020F16D0FEF751FF401B65
:1016100041F288339842F3D90320BFE000380240FA
:10162000023802403C3E000800004742800E47421C
:101630000070004070380240A369022B39D8A369BA
:10164000002B00F0AA80574A926802F00C02082A88
:1016500000F0A680022B40F08880E36913B1B3F557
:10166000800F2CD1236A3F2B2FD8636A323BB3F50E
:10167000BF7F30D8A36A022B05D0042B03D0062BE2
:1016800001D0082B2DD1E36A043B0B2B2FD8464BFE
:1016900000221A60FEF70CFF0546424B1B6813F050
:1016A000007F2AD0FEF704FF401B0228F5D9032053
:1016B00074E04FF4E6713D4800F060FCBFE740F293
:1016C000D5113A4800F05AFCCCE74FF4EB7137489B
:1016D00000F054FCC9E740F2D711344800F04EFC4A
:1016E000C8E74FF4EC71314800F048FCCBE740F21A
:1016F000D9112E4800F042FCC9E7E369226A13437E
:10170000616A47F6C07292FAA2F2B2FA82F201FA64
:1017100002F21343A26A5208013A4FF4403191FA9F
:10172000A1F1B1FA81F18A401343E16A4FF070628E
:1017300092FAA2F2B2FA82F201FA02F21343194AC1
:101740005360194B01221A60FEF7B2FE0446154B96
:101750001B6813F0007F06D1FEF7AAFE001B0228CB
:10176000F5D903201AE0002018E00F4B00221A6080
:10177000FEF79EFE04460B4B1B6813F0007F06D05D
:10178000FEF796FE001B0228F5D9032006E0002094
:1017900004E0012002E0012000E0002003B030BDA1
:1017A0000120FBE700380240600047423C3E000851
:1017B000214B9B6803F00C03042B38D0082B38D145
:1017C0001D4B586800F03F005B6813F4800F1ED07B
:1017D0001A4AB2FBF0F2184B586847F6C07318402B
:1017E00093FAA3F3B3FA83F3D84000FB02F0124B51
:1017F0005B6803F440334FF4403292FAA2F2B2FA3B
:1018000082F2D34001335B00B0FBF3F070470C4A27
:10181000B2FBF0F2084B586847F6C073184093FAD1
:10182000A3F3B3FA83F3D84000FB02F0DFE70348E9
:1018300070470348704700BF0038024000127A002A
:101840000024F40070B504460D460368013B0E2BDE
:101850005ED80F2D62D88C4B1B6803F00F03AB4290
:1018600008D2EBB2884A1370136803F00F03AB423F
:1018700040F00481236813F0020F18D0A3687BB1F5
:10188000802B0DD0902B0BD0A02B09D0B02B07D0E4
:10189000C02B05D0D02B03D0E02B01D0F02B43D1AF
:1018A0007A4A936823F0F003A1680B43936023689E
:1018B00013F0010F7FD06368032B3BD86368012BC3
:1018C0003ED09A1E012A42D9704A126812F0020FC5
:1018D00000F0D6806D498A6822F0030213438B60C2
:1018E000FEF7E6FD06466368012B37D0022B44D095
:1018F000032B51D0654B9B6813F00C0F5BD0FEF7A8
:10190000D7FD801B41F288339842F3D90320A8E029
:1019100040F237215E4800F031FB9AE74FF40E7138
:101920005B4800F02BFB96E740F24F21584800F04F
:1019300025FBB5E740F25621554800F01FFBBDE7F7
:10194000524A126812F4003FC4D1012089E04F4A84
:10195000126812F0007FBDD1012082E04B4B9B68E2
:1019600003F00C03042B26D0FEF7A2FD801B41F2EE
:1019700088339842F2D9032073E0444B9B6803F00C
:101980000C03082B17D0FEF793FD801B41F2883320
:101990009842F2D9032064E03C4B9B6803F00C03AF
:1019A0000C2B08D0FEF784FD801B41F2883398424F
:1019B000F2D9032055E0344B1B6803F00F03AB4210
:1019C00007D9EAB2304B1A701B6803F00F03AB4221
:1019D00058D1236813F0040F14D0E3685BB1B3F55A
:1019E000805F08D0B3F5A05F05D0B3F5C05F02D02B
:1019F000B3F5E05F36D1254A936823F4E053E168FC
:101A00000B439360236813F0080F15D023695BB173
:101A1000B3F5805F08D0B3F5A05F05D0B3F5C05F24
:101A200002D0B3F5E05F23D1184A936823F46043F2
:101A3000216943EAC1039360FFF7BAFE134B9B6829
:101A400003F0F003F02292FAA2F2B2FA82F2D3404B
:101A5000104AD35CD840104B18600F20FEF7F0FC02
:101A6000002070BD4FF42D71094800F087FAC2E7DD
:101A700040F2BB21064800F081FAD5E70120F0E7EB
:101A80000120EEE70120ECE7003C02400038024074
:101A90003C3E00082C3E00080C000020014B18685A
:101AA000704700BF0C00002008B5FFF7F7FF074B99
:101AB0009B6803F4E0534FF4E05292FAA2F2B2FAB8
:101AC00082F2D340024AD35CD84008BD00380240BD
:101AD0002C3E000808B5FFF7E1FF074B9B6803F4B5
:101AE00060434FF4604292FAA2F2B2FA82F2D3401B
:101AF000024AD35CD84008BD003802402C3E0008A2
:101B0000F8B504460368884A934210D0A2F54C42C7
:101B100093420CD002F58062934208D002F54C4209
:101B2000934204D04FF4F461804800F027FAA3698F
:101B30001BB1B3F5806F40F09A80E3691BB1B3F538
:101B4000007F40F09A80236A1BB1B3F5807F40F09C
:101B50009A806268764B9A4200F29B80A3681BB120
:101B6000B3F5805F40F09B80E3684BB1B3F5805FD5
:101B700006D0B3F5405F03D0B3F5005F40F0958029
:101B8000236933B1B3F5806F03D0B3F5C06F40F074
:101B9000928063694FF6F372134200D123B94FF478
:101BA000F561624800F0EAF92268D36823F00C037B
:101BB000D36021680A6922F47C52A369E069034377
:101BC000206A0343E0680343134343F400630B615B
:101BD0002168CA6822F4164222F00C02A368206928
:101BE000034360690343134343F40043CB6022681B
:101BF000536923F44073536123684B4A934260D086
:101C000002F5806293425CD0FFF74EFF00EB80004C
:101C100000EB800065686D00B0FBF5F5454EA6FB56
:101C200005356D092D01FFF73FFF00EB800000EB4C
:101C3000800063685B00B0FBF3F7FFF735FF00EB54
:101C4000800000EB800063685B00B0FBF3F3A6FB51
:101C500003235B09642000FB13731B013233A6FBD3
:101C60000323C3F3431322682B4393605BE040F2EA
:101C7000A1712E4800F082F95FE740F2A2712B4873
:101C800000F07CF95FE740F2A371284800F076F994
:101C90005FE740F2A471254800F070F95EE740F27A
:101CA000A571224800F06AF95EE740F2A6711F486C
:101CB00000F064F964E740F2A7711C4800F05EF997
:101CC00067E7FFF707FF00EB800000EB8000656827
:101CD0006D00B0FBF5F5174EA6FB05356D092D011E
:101CE000FFF7F8FE00EB800000EB800063685B000C
:101CF000B0FBF3F7FFF7EEFE00EB800000EB800097
:101D000063685B00B0FBF3F3A6FB03235B0964206D
:101D100000FB13731B013233A6FB0323C3F34313EE
:101D200022682B439360F8BD001001406C3E000810
:101D3000A037A0001F85EB512DE9F04105460F4665
:101D400016469846069C2B681B6837EA03030CBFAF
:101D500001230023B34225D1B4F1FF3FF3D02CB1CE
:101D6000FEF7A6FBA0EB0800A042ECD92A68D368D6
:101D700023F08003D3602A68D36823F02003D36064
:101D80002A68D36823F48073D3602A68536923F0E8
:101D900001035361012385F83D30002385F83C3071
:101DA000032000E00020BDE8F0817047002839D012
:101DB00010B5044603681C4A93420FD0A2F54C426A
:101DC00093420BD002F58062934207D002F54C4259
:101DD000934203D0EB21154800F0D0F894F83D3041
:101DE000D3B1022384F83D302046FFF789FE2268F4
:101DF000136923F4804313612268536923F02A0393
:101E000053612268D36843F40053D36000202064F8
:101E1000012384F83D3010BD84F83C302046FFF7A4
:101E2000C4FFDEE701207047001001406C3E00084F
:101E30002DE9F04182B01E4690F83D30DBB2012B17
:101E400055D104460D469046002955D0002A55D05C
:101E500090F83C30012B53D0012380F83C30002314
:101E60000364122380F83D30FEF722FB0746A4F8F6
:101E70002880A4F82A8010E000963B4600228021AA
:101E80002046FFF759FF00283CD12B882268C3F376
:101E9000080353602369C3B90235638D9BB2B3B1A4
:101EA000638D013B9BB26385A368B3F5805FE3D08C
:101EB00000963B46002280212046FFF73DFF18BBDD
:101EC00015F8012B23685A60E7E70135E5E700962E
:101ED0003B46002240212046FFF72EFF0346A8B9CB
:101EE000012284F83D20002284F83C2000E00223F7
:101EF000184602B0BDE8F0810123F9E70123F7E7B6
:101F00000223F5E70323F3E70323F1E70323EFE7D6
:101F1000FEE7000008B5034800F054F80120FFF781
:101F2000F7FF00BF9C3E000808B503460C4A126844
:101F30005AB10B4A1068033323F003030344094AE0
:101F4000934206D8064A136008BD054A0649116047
:101F5000EFE701F061FA0C2303604FF0FF30F3E785
:101F60007C00002000FC0220F0010020012303601F
:101F7000014B0B60704700BF0400002008B50A4603
:101F80000146024800F004F8FFF7C4FFB03E000825
:101F90000FB400B583B004AB53F8042B0193802138
:101FA000074801F09BFA002804DC03B05DF804EB5D
:101FB00004B070470146024800F044F8F5E700BF5E
:101FC0008400002010B5044601F054FA0146204672
:101FD00000F038F80121024800F034F810BD00BFCD
:101FE000743F00082DE9F04385B004460F46435680
:101FF00033BB042528462146ABBE0446384605B00F
:10200000BDE8F08304AA1344002203F8102C4FF01B
:102010000408E94640464946ABBE8046761B002E82
:10202000ECD03546102E28BF10250023AB42E9D254
:1020300014F9011B04AA1A4402F8101C0133F5E735
:102040000E46ECE708B5FFF7CDFF08BD08B500F078
:1020500093F8024A024B9A6008BD00BF00000008D6
:1020600000ED00E0F8B504460D4617461E46274829
:10207000FFF78EFF21682648FFF78AFF6168254831
:10208000FFF786FFA1682448FFF782FFE168234835
:10209000FFF77EFF21692248FFF77AFF6169214837
:1020A000FFF776FFA1692048FFF772FFE1691F483B
:1020B000FFF76EFF1E48FFF76BFF29461D48FFF72D
:1020C00067FF1D4CE16A1D48FFF762FF216B1C484A
:1020D000FFF75EFFE16B1B48FFF75AFF15F0800F1B
:1020E0000AD115F4004F0CD11748FFF751FF06999C
:1020F0001648FFF74DFFF8BD39461548FFF748FF72
:10210000EFE731461348FFF743FFEDE7DC3E0008F9
:10211000EC3E0008FC3E00080C3F00081C3F000895
:102120002C3F00083C3F00084C3F00085C3F000883
:102130006C3F0008783F000800ED00E0883F000891
:10214000983F0008A83F0008D83F0008E03F00087B
:10215000B83F0008C83F000883691A888A4201D046
:10216000002070470268033A012A01D90020704715
:1021700002338361012070470C4B1A6842F0010260
:102180001A60002199601A6822F0847222F4803269
:102190001A60074A5A601A6822F480221A60D960CD
:1021A000044B4FF000629A60704700BF0038024055
:1021B0001030002400ED00E0224B9B6803F00C037C
:1021C000042B14D0082B16D01BB11F4B1F4A1A60CA
:1021D00002E01D4B1D4A1A601A4B9B68C3F30313A0
:1021E0001B4AD15C184A1368CB4013607047164BEA
:1021F000184A1A60F0E7134B5A685B6803F03F0314
:1022000012F4800F13D0134AB2FBF3F20D4B5B684C
:10221000C3F3881303FB02F30A4A5268C2F3014274
:1022200001325200B3FBF2F3074A1360D4E7074AC6
:10223000B2FBF3F2034B5B68C3F3881303FB02F3B7
:10224000EAE700BF003802400C0000200024F40040
:102250002440000800127A0030B595B000240194A3
:10226000214B1A6C42F080521A641B6C03F08053AD
:102270000193019B02941D4B1A6842F440421A607C
:102280001B6803F440430293029B012308930993C4
:102290004FF480030F93082310934FF4A873119306
:1022A00002251295072313930E9508A8FFF762F8ED
:1022B0000F230393049505944FF4A05306934FF412
:1022C00080530793052103A8FFF7BCFAFFF7E6FB4D
:1022D000074BA3FB00308009FEF778F90420FEF7D6
:1022E0008BF915B030BD00BF0038024000700040CF
:1022F000D34D621008B5FEF7B9F8FFF7ADFFFFF751
:102300005BFF08BD08B5FEF7CBF808BDF0B583B09C
:10231000002100911E4B1A6B42F001021A631A6BE6
:1023200002F001020092009A01911A6B42F002023F
:102330001A631B6B03F002030193019B154C4FF4CE
:10234000C063236002256560E5600126A66007235F
:102350002361114F21463846FEF76CF926600F4B7A
:102360006360E560A56021463846FEF763F94FF4E7
:1023700040732360122363600323E360A660042399
:10238000236121460648FEF755F903B0F0BD00BFB2
:1023900000380240CC010020000002400000111073
:1023A0000004024000B583B0002301930C4A516C35
:1023B00041F010015164526C02F010020192019A36
:1023C0000848094A02604FF4E13242600822426143
:1023D000C36083600361FFF7E9FC03B05DF804FBB1
:1023E00000380240880100200010014000B583B091
:1023F000002301930E4A116C41F400111164126C18
:1024000002F400120192019A0A480B4A02600B4A38
:1024100042604FF48042026143618360C3610362A2
:10242000C3608361FEF7B8FC03B05DF804FB00BF36
:10243000003802402001002000540040A086010026
:1024400000B585B08DF80C008DF80D106423009355
:10245000022303AAA6210348FEF79AFD05B05DF802
:1024600004FB00BF2001002000B585B06423029367
:102470000191054B009301230246A6210348FEF774
:1024800037FE05B05DF804FB80010020200100202C
:1024900000B585B04FF47A73029301230193054A86
:1024A00000920246A6210448FEF722FE05B05DF820
:1024B00004FB00BF040100202001002008B500201B
:1024C000FFF7E6FF01213120FFF7BAFF00212D20A1
:1024D000FFF7B6FF08212D20FFF7B2FF08BD08B5B2
:1024E000002211460620FEF715F80620FEF758F8E0
:1024F00008BD000000000000D0B588B020220021F7
:10250000684600F08FFFFDF7B1FFFFF7E8FFFFF728
:10251000FDFEFFF747FFFFF769FFFFF7CFFF06213B
:102520003220FFF7A1FF204B5A781C7844EA02249E
:1025300024B21E4A14805A79187940EA022000B267
:102540001B4B188000F03CFC06460F46204600F06E
:1025500037FC32463B4600F075F80022154B00F080
:1025600099FC0FA3D3E9002300F0BEFD00F02CFF7F
:10257000114B1A88821A12B2104B1A801049684601
:1025800000F058FF6423202269460E48FFF750FCF4
:102590004FF47A70FDF792FFC1E700BFAFF3008000
:1025A000182D4454FB210940800100200C0100201B
:1025B0000E01002000806640080100200601002076
:1025C000404000088801002008B50120FEF7C6F948
:1025D00008BD000010B584B0084B01AC93E80700BB
:1025E00084E8070064230C2221460548FFF720FCFD
:1025F000044B1A88044B1A8004B010BD3440000804
:10260000880100200A0100200801002082B000217A
:1026100000910B4B5A6C42F480425A645A6C02F49B
:1026200080420092009A01911A6C42F080521A6422
:102630001B6C03F080530193019B02B0704700BFF5
:102640000038024000F000B82DE9F84F544214431E
:1026500023F00048684E48EAD474B44284460F46DA
:102660001FD84442044321F0004A4AEAD474B442D9
:102670008B4616D803F1404404F5801414439E465B
:1026800047D09C1704F0020444EAD1745AEA0001CE
:102690000FD1022C41D0032C38D145A1D1E9000142
:1026A00005E01046194662463B4600F03DFABDE89B
:1026B000F88F58EA020122D0B04536D0B2451ED07C
:1026C000AAEB08084FEA2858B8F13C0F29DC002B88
:1026D0003BDA18F13C0F38DA00200021012C4AD0F7
:1026E000022C3BD0002CE2D033A3D3E9002300F02E
:1026F00019FA33A3D3E9002300F014FAD7E7BBF1AA
:10270000000F1EDB30A1D1E90001D0E73946BDE85A
:10271000F88FBDE8F84F00F073B829A1D1E90001A6
:10272000C5E729A1D1E90001D8E7C24527D0022C8D
:10273000F3D0032CB1D0012C4FF0000029D00021A0
:10274000B5E723A1D1E90001B1E76046394600F0C1
:10275000CBFC00F0DFF900F053F8BFE716A3D3E994
:10276000002300F0DFF902460B4615A1D1E9000174
:1027700000F0D8F99BE701F10043194697E7022CD6
:1027800012D0032C0CD0012C06D013A1D1E90001EA
:102790008DE74FF000418AE711A1D1E9000186E7FA
:1027A00011A1D1E9000182E711A1D1E900017EE781
:1027B000182D4454FB2109C0075C143326A6A13C04
:1027C000182D4454FB210940182D4454FB21F93F96
:1027D000182D4454FB21F9BF182D4454FB21E93F27
:1027E000182D4454FB21E9BFD221337F7CD902C08C
:1027F000D221337F7CD902400000F07F000000002E
:102800002DE9F84FB64B21F000469E420D468A4610
:10281000044616DDB34B9E420BDC08D0B249B34BE5
:10282000B348BAF1000FD8BF1946BDE8F88F0028A9
:10283000F4D0224620462B46294600F075F9BDE823
:10284000F88FAC4B9E4200F3B480A3F1DE739E423E
:1028500040F39A804FF0FF3B22462B462046294604
:1028600000F018FB02460B468046894600F012FB3A
:1028700083A3D3E9002306460F4600F00BFB82A397
:10288000D3E9002300F050F932463B4600F002FB4A
:102890007FA3D3E9002300F047F932463B4600F01E
:1028A000F9FA7DA3D3E9002300F03EF932463B4616
:1028B00000F0F0FA7AA3D3E9002300F035F93246AC
:1028C0003B4600F0E7FA78A3D3E9002300F02CF9A7
:1028D00042464B4600F0DEFA75A3D3E9002380465A
:1028E00089463046394600F0D5FA73A3D3E9002370
:1028F00000F018F932463B4600F0CCFA70A3D3E959
:10290000002300F00FF932463B4600F0C3FA6EA3F5
:10291000D3E9002300F006F932463B4600F0BAFA4C
:102920006BA3D3E9002300F0FDF832463B4600F0EC
:10293000B1FA02460B464046494600F0F5F82246F9
:102940002B4600F0A7FABBF1FF3F02460B462AD008
:10295000694B6A4E4FEACB0B5B44D3E9002300F08E
:10296000E1F822462B4600F0DDF8B34402460B4660
:10297000DBE9000100F0D6F8BAF1000FBFF655AF61
:1029800001F10041BDE8F88F53A3D3E9002300F023
:10299000CBF800225A4B00F00DFD00283FF45AAF4F
:1029A0002046294641E72046294600F0BBF8BDE80D
:1029B000F88F00F0AFF8534B9E4204460D461FDCE3
:1029C000A3F550239E4244DC02460B4600F0ACF8CF
:1029D00000224B4B00F0A6F8002206460F464FF0AF
:1029E00080432046294600F09FF802460B463046B9
:1029F000394600F079FB4FF0000B04460D462BE7FB
:102A0000414B9E421ADC0022404B00F08BF8002222
:102A100006460F463D4B2046294600F03BFA002271
:102A2000374B00F081F802460B463046394600F03D
:102A30005BFB4FF0020B04460D460DE702460B46CA
:102A40000020334900F050FB4FF0030B04460D46C5
:102A500002E700222A4B00F065F8002206460F46E6
:102A6000274B2046294600F05FF802460B463046C9
:102A7000394600F039FB4FF0010B04460D46EBE6FA
:102A800011DA22E33AAD903FEB0D76244B7BA93F60
:102A9000513DD0A0660DB13F6E204CC5CD45B73F2E
:102AA000FF8300922449C23F0D5555555555D53FDA
:102AB0002F6C6A2C44B4A2BF9AFDDE522DDEAD3FCE
:102AC0006D9A74AFF2B0B33F711623FEC671BC3F6E
:102AD000C4EB98999999C93F9C7500883CE4377E6E
:102AE000FFFF0F440000F07FFB21F93FFB21F9BFFE
:102AF000182D4454FFFFDB3F704000085040000891
:102B00000000F03FFFFFF23FFF7F03400000F83F6F
:102B10000000F0BF21F000431946704781F00041EA
:102B200002E000BF83F0004330B54FEA41044FEAB2
:102B3000430594EA050F08BF90EA020F1FBF54EA4D
:102B4000000C55EA020C7FEA645C7FEA655C00F0E9
:102B5000E2804FEA5454D4EB5555B8BF6D420CDDBA
:102B60002C4480EA020281EA030382EA000083EA3D
:102B7000010180EA020281EA0303362D88BF30BDDD
:102B800011F0004F4FEA01314FF4801C4CEA113133
:102B900002D0404261EB410113F0004F4FEA033392
:102BA0004CEA133302D0524263EB430394EA050F1D
:102BB00000F0A780A4F10104D5F1200E0DDB02FA8C
:102BC0000EFC22FA05F2801841F1000103FA0EF220
:102BD000801843FA05F359410EE0A5F120050EF1E6
:102BE000200E012A03FA0EFC28BF4CF0020C43FA17
:102BF00005F3C01851EBE37101F0004507D54FF024
:102C0000000EDCF1000C7EEB00006EEB0101B1F573
:102C1000801F1BD3B1F5001F0CD349085FEA3000B9
:102C20004FEA3C0C04F101044FEA445212F5800FC4
:102C300080F09A80BCF1004F08BF5FEA500C50F161
:102C4000000041EB045141EA050130BD5FEA4C0C44
:102C5000404141EB010111F4801FA4F10104E9D1CD
:102C600091F0000F04BF01460020B1FA81F308BFC4
:102C70002033A3F10B03B3F120020CDA0C3208DD90
:102C800002F1140CC2F10C0201FA0CF021FA02F16B
:102C90000CE002F11402D8BFC2F1200C01FA02F1DB
:102CA00020FA0CFCDCBF41EA0C019040E41AA2BF00
:102CB00001EB0451294330BD6FEA04041F3C1CDAC8
:102CC0000C340EDC04F11404C4F1200220FA04F0E8
:102CD00001FA02F340EA030021FA04F345EA030192
:102CE00030BDC4F10C04C4F1200220FA02F001FA54
:102CF00004F340EA0300294630BD21FA04F02946D6
:102D000030BD94F0000F83F4801306BF81F480116E
:102D10000134013D4EE77FEA645C18BF7FEA655CE1
:102D200029D094EA050F08BF90EA020F05D054EAB3
:102D3000000C04BF1946104630BD91EA030F1EBFB8
:102D40000021002030BD5FEA545C05D140004941BC
:102D500028BF41F0004130BD14F580043CBF01F5AF
:102D6000801130BD01F0004545F0FE4141F4700195
:102D70004FF0000030BD7FEA645C1ABF1946104670
:102D80007FEA655C1CBF0B46024650EA013406BF71
:102D900052EA033591EA030F41F4002130BD00BF30
:102DA00090F0000F04BF0021704730B54FF48064ED
:102DB00004F132044FF000054FF0000150E700BF6E
:102DC00090F0000F04BF0021704730B54FF48064CD
:102DD00004F1320410F0004548BF40424FF00001BA
:102DE0003EE700BF42004FEAE2014FEA31014FEAFD
:102DF00002701FBF12F07F4393F07F4F81F060514C
:102E0000704732F07F4208BF704793F07F4F04BF96
:102E100041F40021704730B54FF4607401F0004573
:102E200021F000411CE700BF50EA010208BF7047D3
:102E300030B54FF000050AE050EA010208BF7047C4
:102E400030B511F0004502D5404261EB41014FF42D
:102E5000806404F132045FEA915C3FF4D8AE4FF035
:102E600003025FEADC0C18BF03325FEADC0C18BF18
:102E7000033202EBDC02C2F1200300FA03FC20FA69
:102E800002F001FA03FE40EA0E0021FA02F11444B6
:102E9000BDE600BF70B54FF0FF0C4CF4E06C1CEACF
:102EA00011541DBF1CEA135594EA0C0F95EA0C0F40
:102EB00000F0DEF82C4481EA030621EA4C5123EAB3
:102EC0004C5350EA013518BF52EA033541F48011E2
:102ED00043F4801338D0A0FB02CE4FF00005E1FB95
:102EE00002E506F00042E0FB03E54FF00006E1FBDF
:102EF00003569CF0000F18BF4EF0010EA4F1FF0422
:102F0000B6F5007F64F5407404D25FEA4E0E6D4161
:102F100046EB060642EAC62141EA55514FEAC52072
:102F200040EA5E504FEACE2EB4F1FD0C88BFBCF5EE
:102F3000E06F1ED8BEF1004F08BF5FEA500E50F19F
:102F4000000041EB045170BD06F0004646EA010165
:102F500040EA020081EA0301B4EB5C04C2BFD4EB97
:102F60000C0541EA045170BD41F480114FF0000E90
:102F7000013C00F3AB8014F1360FDEBF002001F0FE
:102F8000004170BDC4F10004203C35DA0C341BDC78
:102F900004F11404C4F1200500FA05F320FA04F04A
:102FA00001FA05F240EA020001F0004221F000417E
:102FB00010EBD37021FA04F642EB06015EEA430EF1
:102FC00008BF20EAD37070BDC4F10C04C4F1200521
:102FD00000FA04F320FA05F001FA04F240EA0200D4
:102FE00001F0004110EBD37041F100015EEA430EA5
:102FF00008BF20EAD37070BDC4F1200500FA05F2C5
:103000004EEA020E20FA04F301FA05F243EA020343
:1030100021FA04F001F0004121FA04F220EA020052
:1030200000EBD3705EEA430E08BF20EAD37070BD98
:1030300094F0000F0FD101F00046400041EB010178
:1030400011F4801F08BF013CF7D041EA060195F05A
:10305000000F18BF704703F00046520043EB030314
:1030600013F4801F08BF013DF7D043EA0603704701
:1030700094EA0C0F0CEA135518BF95EA0C0F0CD00C
:1030800050EA410618BF52EA4306D1D181EA030152
:1030900001F000414FF0000070BD50EA410606BF4C
:1030A0001046194652EA430619D094EA0C0F02D191
:1030B00050EA013613D195EA0C0F05D152EA0336D6
:1030C0001CBF104619460AD181EA030101F00041F4
:1030D00041F0FE4141F470014FF0000070BD41F03D
:1030E000FE4141F4780170BD70B54FF0FF0C4CF417
:1030F000E06C1CEA11541DBF1CEA135594EA0C0F36
:1031000095EA0C0F00F0A7F8A4EB050481EA030E82
:1031100052EA03354FEA013100F088804FEA033369
:103120004FF0805545EA131343EA12634FEA022237
:1031300045EA111545EA10654FEA00260EF00041F8
:103140009D4208BF964244F1FD0404F5407402D24A
:103150005B084FEA3202B61A65EB03055B084FEADB
:1031600032024FF480104FF4002CB6EB020E75EBD8
:10317000030E22BFB61A754640EA0C005B084FEA00
:103180003202B6EB020E75EB030E22BFB61A75467D
:1031900040EA5C005B084FEA3202B6EB020E75EBC8
:1031A000030E22BFB61A754640EA9C005B084FEA40
:1031B0003202B6EB020E75EB030E22BFB61A75464D
:1031C00040EADC0055EA060E18D04FEA051545EA3C
:1031D00016754FEA06164FEAC30343EA52734FEAE5
:1031E000C2025FEA1C1CC0D111F4801F0BD141EA5E
:1031F00000014FF000004FF0004CB6E711F4801FC3
:1032000004BF01430020B4F1FD0C88BFBCF5E06FA2
:103210003FF6AFAEB5EB030C04BFB6EB020C5FEAB2
:10322000500C50F1000041EB045170BD0EF0004E07
:103230004EEA113114EB5C04C2BFD4EB0C0541EA39
:10324000045170BD41F480114FF0000E013C90E636
:1032500045EA060E8DE60CEA135594EA0C0F08BFFA
:1032600095EA0C0F3FF43BAF94EA0C0F0AD150EAF9
:1032700001347FF434AF95EA0C0F7FF425AF10468C
:1032800019462CE795EA0C0F06D152EA03353FF4B4
:10329000FDAE1046194622E750EA410618BF52EA31
:1032A00043067FF4C5AE50EA41047FF40DAF52EA05
:1032B00043057FF4EBAE12E74FF0FF3C06E000BFA2
:1032C0004FF0010C02E000BF4FF0010C4DF804CDAF
:1032D0004FEA410C7FEA6C5C4FEA430C18BF7FEA6F
:1032E0006C5C1BD001B050EA410C0CBF52EA430C9D
:1032F00091EA030F02BF90EA020F0020704710F11D
:10330000000F91EA030F58BF994208BF90422CBFAB
:10331000D8176FEAE37040F0010070474FEA410CA4
:103320007FEA6C5C02D150EA013C07D14FEA430CC2
:103330007FEA6C5CD6D152EA033CD3D05DF8040B33
:10334000704700BF8446104662468C461946634665
:1033500000E000BF01B5FFF7B7FF002848BF10F13C
:10336000000F01BD4DF808EDFFF7F4FF0CBF012081
:1033700000205DF808FB00BF4DF808EDFFF7EAFFFD
:1033800034BF012000205DF808FB00BF4DF808EDB8
:10339000FFF7E0FF94BF012000205DF808FB00BFAD
:1033A0004DF808EDFFF7CEFF94BF012000205DF837
:1033B00008FB00BF4DF808EDFFF7C4FF34BF012044
:1033C00000205DF808FB00BF4FEA410212F5001231
:1033D00015D211D56FF47873B3EB625212D94FEA5C
:1033E000C12343F0004343EA505311F0004F23FA46
:1033F00002F018BF404270474FF00000704750EA9B
:10340000013005D111F0004008BF6FF00040704757
:103410004FF00000704700BF014B1868704700BFB5
:103420001000002002440346934200D1704703F885
:10343000011BF9E70EB400B59CB01DAB02900690DD
:103440006FF00041094807910491094953F8042B92
:1034500005910068019302A900F0AAF8029B0022DE
:103460001A701CB05DF804EB03B070471000002028
:103470000802FFFF034613F8012B002AFBD1181A9C
:103480000138704730B5141E05469BB0184605DA62
:103490008B232B604FF0FF301BB030BD4FF4027315
:1034A000ADF80C3014BF04F1FF33234602930593AB
:1034B0004FF6FF7300910491ADF80E3002461E9B4B
:1034C0006946284600F074F8431CBCBF8B232B6070
:1034D000002CE1D0009B00221A70DDE707B50093B5
:1034E00013460A46014603480068FFF7CBFF03B0C6
:1034F0005DF804FB100000202DE9F0478E689E4225
:1035000082460C469146984638D8B1F80CC01CF457
:10351000906F31D062692568096902EB42026F1A27
:1035200002EBD272013355103B449D4238BF1D4619
:103530001CF4806F30D0294600F088FB064650B955
:103540000C23CAF80030A38943F04003A3814FF055
:10355000FF30BDE8F0873A46216900F001FBA389FE
:1035600023F4906343F08003A381266165613E44A8
:10357000ED1B2660A5604646464500D946463246C4
:103580004946206800F0FAFAA3689B1BA3602368F1
:103590001E4426600020DCE72A4600F0B1FB064608
:1035A0000028E2D12169504600F002FBC8E7000084
:1035B0002DE9F04F1E468B891B069DB007460D4630
:1035C00014460ED50B6963B9402100F03FFB28601B
:1035D000286120B90C233B604FF0FF30C9E0402345
:1035E0006B610023099320238DF82930DFF89C912B
:1035F000039630238DF82A304FF0010A23461E46E9
:1036000013F8012B0AB1252AF9D1B6EB040B0BD024
:103610005B46224629463846FFF76EFF013000F030
:10362000A380099B5B4409933378002B00F09C80B6
:1036300000234FF0FF32CDE90523013604930793B1
:103640008DF853301A933446052214F8011B4F4865
:1036500000F036FA049BC0B9D90644BF20228DF889
:1036600053201A0744BF2B228DF8532032782A2A80
:1036700013D0079A344600200A26214611F8013B50
:10368000303B092B4BD970B914E0A0EB09000AFAC2
:1036900000F0184304902646D5E7039A111D1268DE
:1036A0000391002A01DB079204E0524243F0020337
:1036B0000792049323782E2B0CD163782A2B33D1D5
:1036C000039B1A1D1B680392002BB8BF4FF0FF33FA
:1036D000023405932E4E21780322304600F0F0F993
:1036E00038B14023801B03FA00F0049B03430134EC
:1036F000049314F8011B27488DF82810062200F0C7
:10370000DFF9002838D0244B13BB039B073323F089
:10371000070308330393099B434409936EE706FBB1
:10372000023201200C46A8E7002301340593194614
:103730000A26204610F8012B303A092A03D9002B1B
:10374000C8D00591C6E706FB012101230446F0E736
:1037500003AB00932A46114B04A93846AFF300800F
:10376000B0F1FF3F8046D6D1AB895B063FF534AF61
:1037700009981DB0BDE8F08F03AB00932A46074BB4
:1037800004A9384600F082F8EAE700BF904000083C
:10379000964000089A40000800000000F934000834
:1037A0002DE9F04791461F468A680B69DDF82080B5
:1037B0009342B8BF1346C9F8003091F8432006463B
:1037C0000C4612B10133C9F800302368990642BF94
:1037D000D9F800300233C9F80030256815F0060525
:1037E00007D104F1190AE368D9F800209B1AAB420B
:1037F00028DC94F843302268003318BF0123920676
:103800002DD404F1430239463046C047013020D060
:103810002368E568D9F8002003F00603042B08BFED
:10382000AD1AA36822690CBF25EAE575002593420D
:10383000C4BF9B1AED184FF000091A344D451AD138
:10384000002008E00123524639463046C047013087
:1038500003D14FF0FF30BDE8F0870135C3E7E11831
:103860005A1C302081F84300224494F8451082F815
:1038700043100233C5E70123224639463046C0478C
:103880000130E6D009F10109D8E700002DE9F04345
:1038900006460C4601F14300097E85B06E29984624
:1038A00017460C9B00F0BA8024D8632939D00AD877
:1038B000002900F0C380582900F0918004F14205EE
:1038C00084F8421035E0642901D06929F6D12568D1
:1038D0001A6815F0800F02F104012CD012681960EB
:1038E000002A03DA2D23524284F84330DFF8BCC1AA
:1038F0000A233FE0732900F0A58008D86F2921D062
:103900007029DBD1226842F02002226003E0752991
:1039100018D07829D2D1782284F84520DFF890C1D8
:1039200061E01A68111D1960136884F8423004F1CF
:103930004205012393E01268196015F0400F18BF8B
:1039400012B2CDE7D4F800C01A681CF0800F02F163
:1039500004051D6001D0126803E01CF0400FFAD08E
:103960001288DFF848C16F290CBF08230A23002101
:1039700084F843106568A560002DA2BF216821F07E
:10398000040121600AB9002D46D00546B2FBF3F1CF
:1039900003FB112E93421CF80EE005F801ED39D916
:1039A000082B0BD12368DA0708D5236962689A428D
:1039B000DEBF302305F8013C05F1FF35401B2061D7
:1039C000CDF800803B4603AA21463046FFF7E8FECB
:1039D000013049D14FF0FF3005B0BDE8F083DFF88A
:1039E000CCC084F845101D68216855F8042B1D6073
:1039F0000D060BD5CD0744BF41F0200121601AB957
:103A0000236823F0200323601023B0E74B0648BF50
:103A100092B2EFE70A46B9E70546C1E71A68D4F85B
:103A200000C06169151D1D601CF0800F136801D076
:103A3000196003E01CF0400FFAD0198000232361C5
:103A40000546BDE71A68111D1960156862680021F6
:103A5000284600F035F808B1401B606063682361B8
:103A6000002384F84330ABE723692A4639463046C1
:103A7000C0470130AED023689B0713D4E068039B96
:103A80009842B8BF1846A7E701234A463946304650
:103A9000C04701309ED00135E368039A9B1AAB42C0
:103AA000F2DCEBE7002504F11909F5E7A140000875
:103AB000B24000080000000000000000000000000C
:103AC00001F0FF01102A2BDB10F0070F08D010F8CF
:103AD000013B013A8B422DD010F0070F42B3F6D1D3
:103AE000F0B441EA012141EA014122F007047FF0EC
:103AF00000070023F0E80256083C85EA010586EA43
:103B0000010685FA47F5A3FA87F586FA47F6A5FA7E
:103B100087F68EB9EED1F0BC01F0FF0102F007028A
:103B200032B110F8013B013A83EA010313B1F8D135
:103B30000020704701387047002D06BF3546033816
:103B4000073815F0010F07D1013015F4807F02BF4F
:103B5000013015F4C03F0130F0BC0138704700BFA0
:103B60000A44914200F1FF3300D1704710B511F8BB
:103B7000014B03F8014F9142F9D110BD884210B5B5
:103B800001EB020302D983421C4607D8421E994228
:103B900008D011F8014B02F8014FF8E783189A1A80
:103BA0009A4200D110BD14F8011D03F8011DF7E77A
:103BB00038B50546002945D051F8043C0C1F002BB0
:103BC000B8BFE41800F0D2F81F4A1368104633B9A2
:103BD000636014602846BDE8384000F0CDB8A342C9
:103BE0000CD921686218934204BF1A685B6863604D
:103BF00004BF521822600460ECE713465A680AB109
:103C0000A242FAD919685818A0420BD12068014481
:103C1000581882421960DDD1106852685A60014418
:103C20001960D7E702D90C232B60D3E7206821184D
:103C30008A4204BF11685268626004BF091821609B
:103C40005C60C7E738BD00BF10010020F8B5CD1C8F
:103C500025F0030508350C2D38BF0C25002D064630
:103C600001DBA94203D90C2333600020F8BD00F02A
:103C70007DF821490A6814469CB9204F3B6823B956
:103C80002146304600F062F838602946304600F0A0
:103C90005DF8431C23D10C233360304600F06CF8F0
:103CA000E3E723685B1B17D40B2B03D923601C4469
:103CB000256004E06368A2420CBF0B60536030468D
:103CC00000F05AF804F10B00231D20F00700C21A7F
:103CD000CCD01B1AA350C9E722466468CCE7C41CA9
:103CE00024F00304A042E3D0211A304600F02EF85D
:103CF0000130DDD1CFE700BF10010020140100200A
:103D0000F8B5074614460E4621B91146BDE8F840FD
:103D1000FFF79CBF22B9FFF74BFF25462846F8BDA9
:103D200000F030F8A0420FD221463846FFF78EFF50
:103D300005460028F2D031462246FFF711FF3146F2
:103D40003846FFF735FFE9E73546E7E738B5064C73
:103D50000023054608462360FEF7E6F8431C02D11F
:103D6000236803B12B6038BD1C010020014800F01E
:103D700011B800BFE4010020014800F00CB800BFFA
:103D8000E401002051F8043C181F002BBCBF0B5865
:103D9000C0187047704770472E2E2F737973746563
:103DA0006D2F7372632F73746D333266342D6861B7
:103DB0006C2F73746D3332663478785F68616C5F32
:103DC000636F727465782E63000000002E2E2F73CF
:103DD000797374656D2F7372632F73746D333266EC
:103DE000342D68616C2F73746D3332663478785F6C
:103DF00068616C5F6770696F2E6300002E2E2F73F1
:103E0000797374656D2F7372632F73746D333266BB
:103E1000342D68616C2F73746D3332663478785F3B
:103E200068616C5F6932632E63000000000000006F
:103E30000102030401020304060708092E2E2F7352
:103E4000797374656D2F7372632F73746D3332667B
:103E5000342D68616C2F73746D3332663478785FFB
:103E600068616C5F7263632E630000002E2E2F73F7
:103E7000797374656D2F7372632F73746D3332664B
:103E8000342D68616C2F73746D3332663478785FCB
:103E900068616C5F75736172742E630061626F722A
:103EA0007428292C2065786974696E672E2E2E007F
:103EB0006173736572745F706172616D2829206629
:103EC00061696C65643A2066696C652022257322FD
:103ED0002C206C696E652025640A000053746163B0
:103EE0006B206672616D653A0A0000002052302036
:103EF0003D2020253038580A000000002052312093
:103F00003D2020253038580A000000002052322081
:103F10003D2020253038580A000000002052332070
:103F20003D2020253038580A000000002052313250
:103F3000203D20253038580A00000000204C522037
:103F40003D2020253038580A000000002050432032
:103F50003D2020253038580A0000000020505352E0
:103F6000203D20253038580A000000004653522FCB
:103F70004641523A0A0000002043465352203D2059
:103F800020253038580A00002048465352203D2052
:103F900020253038580A00002044465352203D2046
:103FA00020253038580A00002041465352203D2039
:103FB00020253038580A0000204D4D464152203D02
:103FC00020253038580A00002042464152203D202A
:103FD00020253038580A00004D6973630A0000003C
:103FE000204C522F4558435F52455455524E3D2068
:103FF000253038580A0000005B48617264466175DC
:104000006C745D0A000000005B4275734661756C5C
:10401000745D0A005B55736167654661756C745D1C
:104020000A0000000000000000000000010203047C
:1040300006070809496E746572727570740D0A007E
:10404000416E676C653A2025640D0A00000000008F
:104050004FBB610567ACDD3F182D4454FB21E93FA0
:104060009BF681D20B73EF3F182D4454FB21F93F8F
:10407000E2652F227F2B7A3C075C143326A6813C15
:10408000BDCBF07A8807703C075C143326A6913CC0
:10409000232D302B2000686C4C0065666745464731
:1040A00000303132333435363738394142434445B4
:1040B0004600303132333435363738396162636423
:0340C00065660032
:1040C4007856341280000020000000000024F40020
:1040D40014000020000000000000000000000000A8
:1040E40000000000000000000000000000000000CC
:1040F40000000000000000000000000000000000BC
:1041040000000000000000000000000000000000AB
:10411400000000000000000000000000000000009B
:10412400000000000000000000000000000000008B
:084134000000000032547698EF
:04000005080001AD41
:00000001FF
