:020000040800F2
:1000000000000320DD020008E3020008E702000808
:10001000590300085D030008A50300080000000064
:10002000000000000000000000000000ED030008D8
:10003000F103000800000000F50300082521000876
:10004000090400080904000809040008090400085C
:10005000090400080904000809040008090400084C
:10006000090400080904000809040008090400083C
:10007000090400080904000809040008090400082C
:10008000090400080904000809040008090400081C
:10009000090400080904000809040008090400080C
:1000A00009040008090400080904000809040008FC
:1000B00009040008090400080904000809040008EC
:1000C00009040008090400080904000809040008DC
:1000D00009040008090400080904000809040008CC
:1000E00009040008090400080904000809040008BC
:1000F00009040008090400080904000809040008AC
:10010000090400080904000809040008090400089B
:10011000090400080904000809040008090400088B
:10012000090400080904000809040008090400087B
:10013000090400080904000809040008090400086B
:10014000090400080904000809040008090400085B
:10015000090400080904000809040008090400084B
:10016000090400080904000809040008090400083B
:100170000904000809040008090400080000000040
:10018000090400080904000809040008090400081B
:10019000090400080904000809040008090400080B
:1001A00009040008090400080904000800B583B028
:1001B00001F09AFD384B394A1360394A13603949C6
:1001C00000E02146384B99420BD20A684B6801F196
:1001D0000C0488689842F4D952F8041B43F8041BB5
:1001E000F8E72E4B1A68314B9A4200D0FEE72C4BB1
:1001F0001A682F4B9A42F9D1274B2E4A13602E4A88
:1002000013602E4A05E0002043F8040B9A42FAD806
:100210000A462B4B9A4204D2114651F8083B5268C9
:10022000F4E7244B1B6813B9234B1B6803B1FEE7AB
:1002300001F0AEFE694601A801F0E6FC214C224B1C
:10024000E41AA410002504E01F4B53F8253098470A
:100250000135AC42F8DC1D4C1D4BE41AA4100025FE
:1002600004E01B4B53F8253098470135AC42F8DCCD
:100270000099019801F018FF0546164C164BE41A38
:10028000A41004E0013C144B53F824309847002C90
:10029000F8DC284601F08AFCBABADECA0000002069
:1002A000740000200C04000824040008785634125E
:1002B0003254769878000020CC01002024040008F5
:1002C000340400083404000834040008340400082E
:1002D00034040008340400083404000808B5FFF7AB
:1002E00065FF00BEFEE71EF0040F0CBFEFF30880B1
:1002F000EFF309807146414A10472DE9F04182B081
:1003000004468846124B5E6B9F6B9D6A1B6B13F015
:10031000020F03D00E4BDB6A002B0CDB0D4801F003
:1003200085FCCDF800803B4632462946204601F048
:10033000E7FC00BEFEE74BF6AB6101F05BFD002879
:10034000ECD0034B4FF00042DA6202B0BDE8F0811E
:1003500000ED00E0C82C000800BEFEE71EF0040F10
:100360000CBFEFF30880EFF309807146244A104771
:100370002DE9F04182B004468846084B5E6B9F6BC6
:100380009D6A074801F052FCCDF800803B4632469A
:100390002946204601F0B4FC00BEFEE700ED00E077
:1003A000D82C00081EF0040F0CBFEFF30880EFF309
:1003B00009807146134A10472DE9F04182B0044686
:1003C0008846084B5E6B9F6B9D6A074801F02EFCC8
:1003D000CDF800803B4632462946204601F090FC8D
:1003E00000BEFEE700ED00E0E42C000800BEFEE7E2
:1003F00000BEFEE700BEFEE770470000FB020008FB
:0C04000071030008B903000800BEFEE70D
:10040C00502D00080000002078000020502D00081E
:10041C00000000100000001078000020D001002027
:08042C000000001000000010A8
:1004400010B50446074B1868074BA3FB0030800922
:1004500000F0A6F8002221464FF0FF3000F05AF8D5
:10046000002010BD0C000020D34D621008B50B4BCE
:100470001A6842F400721A601A6842F480621A60C4
:100480001A6842F480721A60032000F025F80F20E9
:10049000FFF7D6FF01F04AFE002008BD003C0240F5
:1004A000024A136801331360704700BF0C0100203B
:1004B000014B1868704700BF0C01002010B582B0D6
:1004C0000190FFF7F5FF0446FFF7F2FF001B019BC9
:1004D0009842F9D302B010BD10B50446C31E042BD8
:1004E0000FD80A4AD36823F4E0631B041B0C2402D0
:1004F00004F4E064234343F0BF6343F40033D36068
:1005000010BDA421024801F087FBEAE700ED00E0FE
:10051000682A000870B505460C4616460F2A0FD803
:100520000F2C12D81B4BDB68C3F30223C3F1070265
:10053000042A28BF0422191D06290BD9033B0AE00F
:10054000BC21154801F068FBEAE7BD21124801F023
:1005500063FBE7E700234FF0FF3101FA02F224EAE0
:1005600002049C4001FA03F326EA03063443002DFB
:1005700008DB2401E4B205F1604505F5614585F825
:10058000004370BD05F00F052401E4B2034B5C5538
:10059000F7E700BF00ED00E0682A000814ED00E076
:1005A0000138B0F1807F0AD2064B5860064AF0212C
:1005B00082F823100020986007221A6070470120FB
:1005C000704700BF10E000E000ED00E010B5044609
:1005D000042800D038B9042C0BD0094A136823F042
:1005E0000403136010BD40F2B311064801F014FB80
:1005F000F1E7034A136843F004031360F2E700BF16
:1006000010E000E0682A00082DE9F04782B080463B
:100610000E46BE4B98422BD003F58063984227D0FC
:1006200003F58063984223D003F5806398421FD07E
:1006300003F5806398421BD003F58063984217D07E
:1006400003F58063984213D003F5806398420FD07E
:1006500003F5806398420BD003F58063984207D07E
:1006600003F58063984203D0C521A94801F0D4FA6C
:10067000338833B37368012B1ED9112B1CD0022B86
:100680001AD0122B18D0A34A934215D002F580122B
:10069000934211D002F5801293420DD0A2F5F812C8
:1006A000934209D002F58012934205D002F58012E0
:1006B000934201D0032B09D1B368022B0BD800243D
:1006C0004FE0C621924801F0A7FAD3E7C72190482E
:1006D00001F0A2FAF0E7C8218D4801F09DFAEEE79B
:1006E000D9218B4801F098FA69E0EC21884801F0A3
:1006F00093FA94E0092300E000238B400343023285
:10070000854941F82230854B1A68FB4303EA020110
:10071000706810F4803F01D047EA02017F4A1160FF
:10072000526803EA0201706810F4003F01D047EA02
:1007300002017A4A5160926803EA0201706810F47B
:10074000801F01D047EA0201744A9160D2681340C9
:10075000716811F4001F01D047EA02036F4AD360A9
:1007600001340F2C00F2E0800125A54037682F40AE
:10077000BD42F5D17368022B01D0122B2FD1336902
:10078000EBB1092B1BD0012B19D0022B17D0032B57
:1007900015D0042B13D0052B11D0062B0FD0072B0F
:1007A0000DD0082B0BD00A2B09D00B2B07D00C2B0C
:1007B00005D00D2B03D00F2B01D00E2B90D1E208CA
:1007C000083258F8220004F0070399000F238B40E9
:1007D00020EA030033698B40034348F82230D8F8FD
:1007E00000204FEA440A4FF0030909FA0AF96FEAB8
:1007F000090909EA0202736803F0030303FA0AF322
:100800001343C8F8003073685A1E012A03D9112B0C
:1008100001D0122B18D1F368032B3FF666AFD8F83E
:10082000082009EA0202F36803FA0AF31343C8F83E
:100830000830D8F8042022EA05027368C3F30015D3
:10084000A5401543C8F80450D8F80C3009EA03094C
:10085000B36803FA0AF343EA0903C8F80C30736873
:1008600013F0805F3FF47CAF002301932C4B5A6C54
:1008700042F480425A645B6C03F480430193019B11
:10088000A208911C244B53F8210004F003039900A3
:100890000F238B4020EA03001C4B98453FF42CAFFC
:1008A00003F58063984522D003F58063984520D0F6
:1008B00003F5806398451ED003F5806398451CD0EE
:1008C00003F5806398451AD003F58063984518D0E6
:1008D00003F58063984516D003F58063984521D0D1
:1008E00003F5806398453FF405AF0A2305E701232C
:1008F00003E7022301E70323FFE60423FDE60523C4
:10090000FBE60623F9E60723F7E600BF00000240F6
:100910009C2A00080000111000380140003C0140F2
:10092000003802400823E8E602B0BDE8F08700BFC7
:10093000F8B506460C4617461D461CE02DB1FFF7DC
:10094000B7FD069BC01AA84215D9002333632022A5
:1009500086F83D2086F83C3003201AE033689B6916
:1009600024EA03039BB2B3FA83F35B099F420FD1DE
:10097000B5F1FF3FE2D1C4F30743012BEED1336859
:100980005B6924EA03039BB2B3FA83F35B09EDE7E7
:100990000020F8BDF8B504460D4616461F4632E065
:1009A0001A6842F400721A6023686FF480625A6118
:1009B0000423236400232363202284F83D2084F849
:1009C0003C3001202DE026B1FFF772FDC01BB04284
:1009D00019D900232363202284F83D2084F83C3079
:1009E00003201EE023689B6925EA03039BB20033C2
:1009F00018BF0123A3B123685A6912F4806FCFD1C5
:100A0000B6F1FF3FDFD1C5F30743012BEAD12368DD
:100A10005B6925EA03039BB2003318BF0123E9E7B2
:100A20000020F8BD2DE9F04184B004460D4616467D
:100A30001F46C36A042B12D0012B10D013F5803F40
:100A40000DD0036B112B14D10268136843F480633B
:100A500013600268136843F48073136009E022682E
:100A6000136843F4806313602268136843F480734F
:100A700013600097334600224FF001112046FFF724
:100A800057FF002858D12369B3F5804F12D123684E
:100A900045F00105EDB21D613B4632462A4920462C
:100AA000FFF778FF0346002847D0236C042B41D082
:100AB000032342E04FEAE51808F00608236848F0EF
:100AC000F0021A613B46324620492046FFF762FF9A
:100AD00030B1236C042B01D003232EE001232CE042
:100AE0002368EDB21D613B46324617492046FFF7A9
:100AF00051FF30B1236C042B01D003231DE00123EF
:100B00001BE00022039223685969039199690391BC
:100B10000399196841F480711960009733464FF0CA
:100B200001112046FFF704FF58B9226848F0F1038D
:100B30001361B1E7012300E00323184604B0BDE8C8
:100B4000F0810323F9E700BF020001000800010063
:100B500070B505460C4616462B685A6912F0400FD0
:100B600022D15A6912F0100F11D124B1FFF7A0FC65
:100B7000801BA042F0D92B6C43F020032B64202370
:100B800085F83D30002385F83C30032070BD6FF0C0
:100B900010025A6100232B642B63202285F83D202C
:100BA00085F83C300120F1E70020EFE770470000B6
:100BB000002800F0EB8010B504460368744A9342A5
:100BC0000CD002F58062934208D002F58062934215
:100BD00004D040F265116F4801F01EF86368013BD4
:100BE0006D4A934267D8A36813B1B3F5804F68D1BB
:100BF000E36823F47F7323F00303002B67D1236999
:100C0000B3F5804F02D0B3F5404F66D16369012B35
:100C100069D8A36933F0FE036BD1E3690BB1402BB4
:100C20006DD1236A0BB1802B6FD194F83D30002B2E
:100C300071D0242384F83D302268136823F0010327
:100C4000136000F07FFD554BA3FB00239B0C226833
:100C500053606168524A914263D80133226813623B
:100C600063684F4A934266D85B00B0FBF3F040F6EE
:100C7000FC73184200D104202368D861E369216A1B
:100C800022680B4313602369E16822680B43936079
:100C90006369A16922680B43D3602268136843F03B
:100CA0000103136000202064202384F83D3020637A
:100CB00084F83E0010BD4FF4B371364800F0ACFF2D
:100CC00091E740F26711334800F0A6FF90E74FF438
:100CD000B471304800F0A0FF91E740F269112D484F
:100CE00000F09AFF92E74FF4B5712A4800F094FFA4
:100CF0008FE740F26B11274800F08EFF8DE74FF42D
:100D0000B671244800F088FF8BE740F26D1121484E
:100D100000F082FF89E784F83C302046FFF746FF69
:100D200087E74FF4967202FB03F31E4AA2FB0323EC
:100D30009B09013392E7A16889B903EB4302B0FB39
:100D4000F2F2C2F30B02B2FA82F25209E2B991B99D
:100D500003EB4303B0FBF3F040F400408CE703EBFC
:100D6000830202EB8202B0FBF2F2C2F30B02B2FA90
:100D700082F25209EAE703EB830303EB8303B0FB40
:100D8000F3F040F4404077E7012075E70120704719
:100D900000540040CC2A00087F1A060083DE1B4363
:100DA000A0860100D34D62102DE9F04186B00546C2
:100DB000884616461C46FFF77BFB95F83D30DBB2B4
:100DC000202B05D04FF00208404606B0BDE8F08168
:100DD00007460090192301228B492846FFF7A8FDFA
:100DE000002840F0048195F83C30012B00F002818E
:100DF000012385F83C302A68136823F400631360EC
:100E0000222385F83D30102385F83E3000232B64E3
:100E1000A3F58033EB623B460C9A41462846FFF728
:100E200001FE804670B12B6C042B05D0002385F8A1
:100E30003C304FF00308C7E7002385F83C304FF003
:100E40000108C1E764B9002302932B685A69029232
:100E50009A690292029A1A6842F400721A6074E067
:100E6000012C0FD0022C1FD02A68136843F4806332
:100E70001360002305932B685A6905929B690593BB
:100E8000059B62E02A68136823F4806313600023E3
:100E900003932B685A6903929A690392039A1A681A
:100EA00042F400721A6050E02A68136823F48063E9
:100EB00013602A68136843F40063136000230493EB
:100EC0002B685A6904929B690493049B3DE03A465F
:100ED0000C992846FFF73CFE30B92B681B6906F8D1
:100EE000013B013CA4B230E02B6C202B02D04FF030
:100EF000010869E74FF0030866E700970C9B0022A2
:100F000042492846FFF714FD002876D12A68136865
:100F100043F4007313602B681A69334603F8022BFD
:100F20002A6812697270023CA4B21E460DE02A685B
:100F3000136843F4007313602B681B6973702B688C
:100F40001B69B370033CA4B20336002C46D0032CBB
:100F500020D8012CBBD0022CCFD000970C9B0022B4
:100F60002A492846FFF7E4FC002849D12A6813687B
:100F700023F4806313602B681B69337000970C9B0C
:100F8000002222492846FFF7D3FC0028CFD04FF09B
:100F9000030819E73A460C992846FFF7D9FD88B9A6
:100FA0002B681A69334603F8012B621E92B2296836
:100FB000486910F0040F0ED00A6902361A70023C1C
:100FC000A4B2C2E72B6C202B02D04FF00108FBE645
:100FD0004FF00308F8E614461E46B6E7202385F8CE
:100FE0003D30002385F83E3085F83C30ECE64FF08C
:100FF0000208E9E64FF00208E6E64FF00308E3E6F0
:101000004FF00308E0E600BF0200100004000100FA
:1010100030B583B0044603680F2B29D8236813F03A
:10102000010F3DD06368012B01D9052B25D1A24BBF
:101030009B6803F00C03042B29D09F4B9B6803F0A3
:101040000C03082B1ED022799C4B1A706368002B6E
:1010500050D0FFF72DFA0546974B1B6813F4003F5D
:101060001ED1FFF725FA401B6428F5D90320E3E1E0
:10107000F521934800F0D0FDD0E7FA21904800F028
:10108000CBFDD4E78C4B5B6813F4800FDBD08A4B2D
:101090001B6813F4003F03D06368002B00F0C78186
:1010A000236813F0020F5CD0E368012B31D8236969
:1010B0001F2B34D8804B9B6813F00C0F3AD07E4B1B
:1010C0009B6803F00C03082B2FD0E368002B73D030
:1010D0007C4B01221A60FFF7EBF90546764B1B6843
:1010E00013F0020F59D1FFF7E3F9401B0228F5D99D
:1010F0000320A1E1FFF7DCF905466F4B1B6813F4F1
:10110000003FCDD0FFF7D4F9401B6428F5D9032068
:1011100092E14FF496716A4800F07EFDC7E740F215
:101120002D11674800F078FDC4E7634B5B6813F44A
:10113000800FCAD1604B1B6813F0020F03D0E36825
:10114000012B40F076815C48036823F0F8032169A5
:10115000F82292FAA2F2B2FA82F201FA02F21343F0
:101160000360236813F0080F50D06369012B35D852
:101170006369002B38D0544B01221A60FFF798F9AD
:1011800005464D4B5B6F13F0020F3FD1FFF790F90F
:10119000401B0228F5D903204EE14748036823F09D
:1011A000F8032169F82292FAA2F2B2FA82F201FA65
:1011B00002F213430360D4E7424B00221A60FFF7A8
:1011C00077F905463C4B1B6813F0020FC9D0FFF7B7
:1011D0006FF9401B0228F5D903202DE140F26D1173
:1011E000374800F019FDC3E7374B00221A60FFF7BC
:1011F0005FF90546304B5B6F13F0020F06D0FFF727
:1012000057F9401B0228F5D9032015E1236813F094
:10121000040F5FD0A368012B01D9052B1FD1002338
:101220000193254B1A6C42F080521A641B6C03F038
:1012300080530193019B254A136843F48073136024
:10124000FFF736F90546214B1B6813F4807F0CD15C
:10125000FFF72EF9401B0228F5D90320ECE040F2FD
:101260009711174800F0D8FCD9E7227A184B1A706A
:10127000A36883B1FFF71CF905460F4B1B6F13F0F2
:10128000020F27D1FFF714F9401B41F2883398422F
:10129000F3D90320D0E0FFF70BF90546064B1B6F8F
:1012A00013F0020F16D0FFF703F9401B41F2883309
:1012B0009842F3D90320BFE00038024002380240D0
:1012C0000C2B000800004742800E4742007000408F
:1012D00070380240A369022B39D8A369002B00F0B3
:1012E000AA80574A926802F00C02082A00F0A680F1
:1012F000022B40F08880E36913B1B3F5800F2CD145
:10130000236A3F2B2FD8636A323BB3F5BF7F30D8B7
:10131000A36A022B05D0042B03D0062B01D0082B87
:101320002DD1E36A043B0B2B2FD8464B00221A60C9
:10133000FFF7BEF80546424B1B6813F0007F2AD02A
:10134000FFF7B6F8401B0228F5D9032074E04FF4EC
:10135000E6713D4800F060FCBFE740F2D5113A4825
:1013600000F05AFCCCE74FF4EB71374800F054FC26
:10137000C9E740F2D711344800F04EFCC8E74FF4FB
:10138000EC71314800F048FCCBE740F2D9112E480F
:1013900000F042FCC9E7E369226A1343616A47F639
:1013A000C07292FAA2F2B2FA82F201FA02F2134386
:1013B000A26A5208013A4FF4403191FAA1F1B1FA10
:1013C00081F18A401343E16A4FF0706292FAA2F20F
:1013D000B2FA82F201FA02F21343194A5360194B2E
:1013E00001221A60FFF764F80446154B1B6813F0DE
:1013F000007F06D1FFF75CF8001B0228F5D9032017
:101400001AE0002018E00F4B00221A60FFF750F896
:1014100004460B4B1B6813F0007F06D0FFF748F81B
:10142000001B0228F5D9032006E0002004E001207B
:1014300002E0012000E0002003B030BD0120FBE706
:1014400000380240600047420C2B0008214B9B688B
:1014500003F00C03042B38D0082B38D11D4B5868EF
:1014600000F03F005B6813F4800F1ED01A4AB2FBF5
:10147000F0F2184B586847F6C073184093FAA3F37C
:10148000B3FA83F3D84000FB02F0124B5B6803F41D
:1014900040334FF4403292FAA2F2B2FA82F2D340D1
:1014A00001335B00B0FBF3F070470C4AB2FBF0F283
:1014B000084B586847F6C073184093FAA3F3B3FA81
:1014C00083F3D84000FB02F0DFE70348704703488E
:1014D000704700BF0038024000127A000024F40078
:1014E00070B504460D460368013B0E2B5ED80F2DE8
:1014F00062D88C4B1B6803F00F03AB4208D2EBB2EF
:10150000884A1370136803F00F03AB4240F0048164
:10151000236813F0020F18D0A3687BB1802B0DD085
:10152000902B0BD0A02B09D0B02B07D0C02B05D00F
:10153000D02B03D0E02B01D0F02B43D17A4A936813
:1015400023F0F003A1680B439360236813F0010FAD
:101550007FD06368032B3BD86368012B3ED09A1E73
:10156000012A42D9704A126812F0020F00F0D680A8
:101570006D498A6822F0030213438B60FEF798FFDF
:1015800006466368012B37D0022B44D0032B51D081
:10159000654B9B6813F00C0F5BD0FEF789FF801B37
:1015A00041F288339842F3D90320A8E040F2372172
:1015B0005E4800F031FB9AE74FF40E715B4800F093
:1015C0002BFB96E740F24F21584800F025FBB5E78A
:1015D00040F25621554800F01FFBBDE7524A126801
:1015E00012F4003FC4D1012089E04F4A126812F082
:1015F000007FBDD1012082E04B4B9B6803F00C03C0
:10160000042B26D0FEF754FF801B41F2883398420A
:10161000F2D9032073E0444B9B6803F00C03082BC2
:1016200017D0FEF745FF801B41F288339842F2D96C
:10163000032064E03C4B9B6803F00C030C2B08D0A8
:10164000FEF736FF801B41F288339842F2D903201F
:1016500055E0344B1B6803F00F03AB4207D9EAB2E5
:10166000304B1A701B6803F00F03AB4258D123684C
:1016700013F0040F14D0E3685BB1B3F5805F08D0BA
:10168000B3F5A05F05D0B3F5C05F02D0B3F5E05F5E
:1016900036D1254A936823F4E053E1680B43936005
:1016A000236813F0080F15D023695BB1B3F5805F91
:1016B00008D0B3F5A05F05D0B3F5C05F02D0B3F595
:1016C000E05F23D1184A936823F46043216943EA19
:1016D000C1039360FFF7BAFE134B9B6803F0F0035E
:1016E000F02292FAA2F2B2FA82F2D340104AD35C0C
:1016F000D840104B18600F20FEF7A2FE002070BDEE
:101700004FF42D71094800F087FAC2E740F2BB217F
:10171000064800F081FAD5E70120F0E70120EEE766
:101720000120ECE7003C0240003802400C2B00088E
:10173000FC2A00080C000020014B1868704700BF0D
:101740000C00002008B5FFF7F7FF074B9B6803F478
:10175000E0534FF4E05292FAA2F2B2FA82F2D3408E
:10176000024AD35CD84008BD00380240FC2A000879
:1017700008B5FFF7E1FF074B9B6803F460434FF4A4
:10178000604292FAA2F2B2FA82F2D340024AD35CE9
:10179000D84008BD00380240FC2A0008F8B50446CD
:1017A0000368884A934210D0A2F54C4293420CD071
:1017B00002F58062934208D002F54C42934204D075
:1017C0004FF4F461804800F027FAA3691BB1B3F528
:1017D000806F40F09A80E3691BB1B3F5007F40F061
:1017E0009A80236A1BB1B3F5807F40F09A806268CB
:1017F000764B9A4200F29B80A3681BB1B3F5805FE1
:1018000040F09B80E3684BB1B3F5805F06D0B3F541
:10181000405F03D0B3F5005F40F09580236933B19A
:10182000B3F5806F03D0B3F5C06F40F09280636969
:101830004FF6F372134200D123B94FF4F5616248B9
:1018400000F0EAF92268D36823F00C03D360216822
:101850000A6922F47C52A369E0690343206A0343C6
:10186000E0680343134343F400630B612168CA68D3
:1018700022F4164222F00C02A36820690343606937
:101880000343134343F40043CB602268536923F4BA
:101890004073536123684B4A934260D002F58062E3
:1018A00093425CD0FFF74EFF00EB800000EB80001E
:1018B00065686D00B0FBF5F5454EA6FB05356D0975
:1018C0002D01FFF73FFF00EB800000EB8000636815
:1018D0005B00B0FBF3F7FFF735FF00EB800000EB98
:1018E000800063685B00B0FBF3F3A6FB03235B0996
:1018F000642000FB13731B013233A6FB0323C3F3E5
:10190000431322682B4393605BE040F2A1712E48A1
:1019100000F082F95FE740F2A2712B4800F07CF9F9
:101920005FE740F2A371284800F076F95FE740F2E4
:10193000A471254800F070F95EE740F2A5712248D5
:1019400000F06AF95EE740F2A6711F4800F064F902
:1019500064E740F2A7711C4800F05EF967E7FFF703
:1019600007FF00EB800000EB800065686D00B0FBB6
:10197000F5F5174EA6FB05356D092D01FFF7F8FEAD
:1019800000EB800000EB800063685B00B0FBF3F7C6
:10199000FFF7EEFE00EB800000EB800063685B0069
:1019A000B0FBF3F3A6FB03235B09642000FB137376
:1019B0001B013233A6FB0323C3F3431322682B43DB
:1019C0009360F8BD001001403C2B0008A037A00038
:1019D0001F85EB512DE9F04105460F461646984606
:1019E000069C2B681B6837EA03030CBF0123002306
:1019F000B34225D1B4F1FF3FF3D02CB1FEF758FD2F
:101A0000A0EB0800A042ECD92A68D36823F0800339
:101A1000D3602A68D36823F02003D3602A68D36890
:101A200023F48073D3602A68536923F00103536160
:101A3000012385F83D30002385F83C30032000E089
:101A40000020BDE8F0817047002839D010B5044669
:101A500003681C4A93420FD0A2F54C4293420BD02C
:101A600002F58062934207D002F54C42934203D0C4
:101A7000EB21154800F0D0F894F83D30D3B10223A3
:101A800084F83D302046FFF789FE2268136923F46D
:101A9000804313612268536923F02A03536122684B
:101AA000D36843F40053D36000202064012384F8FA
:101AB0003D3010BD84F83C302046FFF7C4FFDEE720
:101AC00001207047001001403C2B00082DE9F04137
:101AD00082B01E4690F83D30DBB2012B55D1044652
:101AE0000D469046002955D0002A55D090F83C303C
:101AF000012B53D0012380F83C30002303641223D0
:101B000080F83D30FEF7D4FC0746A4F82880A4F8FE
:101B10002A8010E000963B46002280212046FFF7F5
:101B200059FF00283CD12B882268C3F30803536077
:101B30002369C3B90235638D9BB2B3B1638D013B99
:101B40009BB26385A368B3F5805FE3D000963B4604
:101B5000002280212046FFF73DFF18BB15F8012B1E
:101B600023685A60E7E70135E5E700963B46002227
:101B700040212046FFF72EFF0346A8B9012284F832
:101B80003D20002284F83C2000E00223184602B0E9
:101B9000BDE8F0810123F9E70123F7E70223F5E728
:101BA0000323F3E70323F1E70323EFE7FEE7000056
:101BB00008B5034800F054F80120FFF7F7FF00BF15
:101BC0006C2B000808B503460C4A12685AB10B4A40
:101BD0001068033323F003030344094A934206D8F1
:101BE000064A136008BD054A06491160EFE700F098
:101BF0009FFA0C2303604FF0FF30F3E77C000020D6
:101C000000FC0220D001002001230360014B0B6087
:101C1000704700BF0400002008B50A46014602488C
:101C200000F004F8FFF7C4FF802B00080FB400B5E4
:101C300083B004AB53F8042B01938021074800F0D4
:101C4000B9FA002804DC03B05DF804EB04B0704777
:101C50000146024800F044F8F5E700BF8400002088
:101C600010B5044600F072FA0146204600F038F83C
:101C70000121024800F034F810BD00BF442C0008D8
:101C80002DE9F04385B004460F46435633BB042587
:101C900028462146ABBE0446384605B0BDE8F08371
:101CA00004AA1344002203F8102C4FF00408E9465C
:101CB00040464946ABBE8046761B002EECD03546EA
:101CC000102E28BF10250023AB42E9D214F9011BC6
:101CD00004AA1A4402F8101C0133F5E70E46ECE79B
:101CE00008B5FFF7CDFF08BD08B500F093F8024A2C
:101CF000024B9A6008BD00BF0000000800ED00E044
:101D0000F8B504460D4617461E462748FFF78EFFD6
:101D100021682648FFF78AFF61682548FFF786FF9C
:101D2000A1682448FFF782FFE1682348FFF77EFFA0
:101D300021692248FFF77AFF61692148FFF776FFA2
:101D4000A1692048FFF772FFE1691F48FFF76EFFA6
:101D50001E48FFF76BFF29461D48FFF767FF1D4C24
:101D6000E16A1D48FFF762FF216B1C48FFF75EFF29
:101D7000E16B1B48FFF75AFF15F0800F0AD115F4ED
:101D8000004F0CD11748FFF751FF06991648FFF78F
:101D90004DFFF8BD39461548FFF748FFEFE73146DC
:101DA0001348FFF743FFEDE7AC2B0008BC2B0008FE
:101DB000CC2B0008DC2B0008EC2B0008FC2B0008C7
:101DC0000C2C00081C2C00082C2C00083C2C0008B3
:101DD000482C000800ED00E0582C0008682C000892
:101DE000782C0008A82C0008B02C0008882C0008CB
:101DF000982C000883691A888A4201D00020704715
:101E00000268033A012A01D9002070470233836136
:101E1000012070470C4B1A6842F001021A60002141
:101E200099601A6822F0847222F480321A60074A9C
:101E30005A601A6822F480221A60D960044B4FF06D
:101E400000629A60704700BF0038024010300024E2
:101E500000ED00E0224B9B6803F00C03042B14D030
:101E6000082B16D01BB11F4B1F4A1A6002E01D4BF6
:101E70001D4A1A601A4B9B68C3F303131B4AD15CBB
:101E8000184A1368CB4013607047164B184A1A6003
:101E9000F0E7134B5A685B6803F03F0312F4800FBE
:101EA00013D0134AB2FBF3F20D4B5B68C3F38813F4
:101EB00003FB02F30A4A5268C2F3014201325200A4
:101EC000B3FBF2F3074A1360D4E7074AB2FBF3F21D
:101ED000034B5B68C3F3881303FB02F3EAE700BF1D
:101EE000003802400C0000200024F400F42C00080C
:101EF00000127A0030B595B000240194214B1A6C81
:101F000042F080521A641B6C03F080530193019BD2
:101F100002941D4B1A6842F440421A601B6803F495
:101F200040430293029B0123089309934FF48003DB
:101F30000F93082310934FF4A87311930225129561
:101F4000072313930E9508A8FFF762F80F23039356
:101F5000049505944FF4A05306934FF480530793D0
:101F6000052103A8FFF7BCFAFFF7E6FB074BA3FB2D
:101F700000308009FEF714FB0420FEF727FB15B0A4
:101F800030BD00BF0038024000700040D34D6210E9
:101F900008B5FEF76BFAFFF7ADFFFFF75BFF08BD73
:101FA00010B582B000240094184B1A6B42F0010265
:101FB0001A631A6B02F001020092009A01945A6CA3
:101FC00042F010025A645B6C03F010030193019B12
:101FD0000F494FF4C0630B6002234B60CB600123B9
:101FE0008B6007230B610B48FEF70EFB0A480B4B77
:101FF00003604FF4E133436008234361C4608460AD
:102000000461FFF721FD02B010BD00BF003802409F
:10201000AC010020000002406801002000100140D7
:1020200010B582B0002400941A4B1A6C42F40012CE
:102030001A641A6C02F400120092009A01941A6B4E
:1020400042F002021A631B6B03F002030193019B2F
:1020500011494FF440730B6012234B600223CB6095
:1020600001238B6004230B610C48FEF7CDFA0C486A
:102070000C4B03604CF2503343604FF480430361D8
:1020800044618360C46104625323C360FEF790FD22
:1020900002B010BD00380240AC0100200004024034
:1020A000140100200054004000B591B0FEF7DEF9A5
:1020B000FFF776FFFFF7B4FF0AAC174D0FCD0FC443
:1020C00095E8030044F8040B24F8021B090C217066
:1020D0004FF0FF3317220AA91048FFF7F7FC202220
:1020E000002102A800F02AF84FF0FF3400942023CA
:1020F00002AA53210A48FEF757FE6420FEF7DEF9D4
:102100002346202202A90548FFF7E0FC4FF4617046
:10211000FEF7D4F9E8E700BF042D000868010020AD
:102120001401002008B5FEF7BBF908BD7047000098
:10213000014B1868704700BF10000020024403469E
:10214000934200D1704703F8011BF9E7034613F8E7
:10215000012B002AFBD1181A0138704730B5141E24
:1021600005469BB0184605DA8B232B604FF0FF30F5
:102170001BB030BD4FF40273ADF80C3014BF04F146
:10218000FF332346029305934FF6FF7300910491AA
:10219000ADF80E3002461E9B6946284600F074F8E2
:1021A000431CBCBF8B232B60002CE1D0009B002282
:1021B0001A70DDE707B5009313460A460146034847
:1021C0000068FFF7CBFF03B05DF804FB10000020B0
:1021D0002DE9F0478E689E4282460C46914698460D
:1021E00038D8B1F80CC01CF4906F31D06269256802
:1021F000096902EB42026F1A02EBD27201335510E9
:102200003B449D4238BF1D461CF4806F30D02946A8
:1022100000F084FB064650B90C23CAF80030A389AD
:1022200043F04003A3814FF0FF30BDE8F0873A460A
:10223000216900F0FDFAA38923F4906343F0800341
:10224000A381266165613E44ED1B2660A56046467C
:10225000464500D9464632464946206800F0F6FA1F
:10226000A3689B1BA36023681E4426600020DCE754
:102270002A4600F0ADFB06460028E2D1216950460F
:1022800000F0FEFAC8E700002DE9F04F1E468B89EA
:102290001B069DB007460D4614460ED50B6963B963
:1022A000402100F03BFB2860286120B90C233B60F3
:1022B0004FF0FF30C9E040236B61002309932023D6
:1022C0008DF82930DFF89C91039630238DF82A3061
:1022D0004FF0010A23461E4613F8012B0AB1252AA6
:1022E000F9D1B6EB040B0BD05B46224629463846A3
:1022F000FFF76EFF013000F0A380099B5B44099358
:102300003378002B00F09C8000234FF0FF32CDE9A2
:1023100005230136049307938DF853301A933446FE
:10232000052214F8011B4F4800F032FA049BC0B993
:10233000D90644BF20228DF853201A0744BF2B2210
:102340008DF8532032782A2A13D0079A3446002079
:102350000A26214611F8013B303B092B4BD970B9B5
:1023600014E0A0EB09000AFA00F018430490264696
:10237000D5E7039A111D12680391002A01DB079229
:1023800004E0524243F002030792049323782E2B79
:102390000CD163782A2B33D1039B1A1D1B6803923F
:1023A000002BB8BF4FF0FF33023405932E4E217837
:1023B0000322304600F0ECF938B14023801B03FAC9
:1023C00000F0049B03430134049314F8011B2748D5
:1023D0008DF82810062200F0DBF9002838D0244BB5
:1023E00013BB039B073323F0070308330393099BB5
:1023F000434409936EE706FB023201200C46A8E72E
:1024000000230134059319460A26204610F8012BB3
:10241000303A092A03D9002BC8D00591C6E706FB3C
:10242000012101230446F0E703AB00932A46114B38
:1024300004A93846AFF30080B0F1FF3F8046D6D103
:10244000AB895B063FF534AF09981DB0BDE8F08F4E
:1024500003AB00932A46074B04A9384600F082F8E4
:10246000EAE700BF1C2D0008222D0008262D0008D9
:1024700000000000D12100082DE9F04791461F46D9
:102480008A680B69DDF820809342B8BF1346C9F80B
:10249000003091F8432006460C4612B10133C9F8CA
:1024A00000302368990642BFD9F800300233C9F8DA
:1024B0000030256815F0060507D104F1190AE36814
:1024C000D9F800209B1AAB4228DC94F843302268EC
:1024D000003318BF012392062DD404F1430239467C
:1024E0003046C047013020D02368E568D9F8002085
:1024F00003F00603042B08BFAD1AA36822690CBFC2
:1025000025EAE57500259342C4BF9B1AED184FF0EC
:1025100000091A344D451AD1002008E00123524623
:1025200039463046C047013003D14FF0FF30BDE897
:10253000F0870135C3E7E1185A1C302081F84300C9
:10254000224494F8451082F843100233C5E7012372
:10255000224639463046C0470130E6D009F101092C
:10256000D8E700002DE9F04306460C4601F1430090
:10257000097E85B06E29984617460C9B00F0BA80FC
:1025800024D8632939D00AD8002900F0C3805829FB
:1025900000F0918004F1420584F8421035E064298E
:1025A00001D06929F6D125681A6815F0800F02F16B
:1025B00004012CD012681960002A03DA2D2352423C
:1025C00084F84330DFF8BCC10A233FE0732900F0F0
:1025D000A58008D86F2921D07029DBD1226842F06C
:1025E0002002226003E0752918D07829D2D1782200
:1025F00084F84520DFF890C161E01A68111D196068
:10260000136884F8423004F14205012393E0126814
:10261000196015F0400F18BF12B2CDE7D4F800C012
:102620001A681CF0800F02F104051D6001D01268C9
:1026300003E01CF0400FFAD01288DFF848C16F2980
:102640000CBF08230A23002184F843106568A560A5
:10265000002DA2BF216821F0040121600AB9002DDC
:1026600046D00546B2FBF3F103FB112E93421CF852
:102670000EE005F801ED39D9082B0BD12368DA07F4
:1026800008D5236962689A42DEBF302305F8013C11
:1026900005F1FF35401B2061CDF800803B4603AAC1
:1026A00021463046FFF7E8FE013049D14FF0FF30B8
:1026B00005B0BDE8F083DFF8CCC084F845101D6894
:1026C000216855F8042B1D600D060BD5CD0744BFBE
:1026D00041F0200121601AB9236823F02003236010
:1026E0001023B0E74B0648BF92B2EFE70A46B9E7BE
:1026F0000546C1E71A68D4F800C06169151D1D6060
:102700001CF0800F136801D0196003E01CF0400F2B
:10271000FAD01980002323610546BDE71A68111D10
:102720001960156862680021284600F031F808B188
:10273000401B606063682361002384F84330ABE78B
:1027400023692A4639463046C0470130AED0236857
:102750009B0713D4E068039B9842B8BF1846A7E7CD
:1027600001234A4639463046C04701309ED00135E4
:10277000E368039A9B1AAB42F2DCEBE7002504F115
:102780001909F5E72D2D00083E2D00080000000076
:1027900001F0FF01102A2BDB10F0070F08D010F812
:1027A000013B013A8B422DD010F0070F42B3F6D116
:1027B000F0B441EA012141EA014122F007047FF02F
:1027C00000070023F0E80256083C85EA010586EA86
:1027D000010685FA47F5A3FA87F586FA47F6A5FAC2
:1027E00087F68EB9EED1F0BC01F0FF0102F00702CE
:1027F00032B110F8013B013A83EA010313B1F8D179
:102800000020704701387047002D06BF3546033859
:10281000073815F0010F07D1013015F4807F02BF92
:10282000013015F4C03F0130F0BC0138704700BFE3
:102830000A44914200F1FF3300D1704710B511F8FE
:10284000014B03F8014F9142F9D110BD884210B5F8
:1028500001EB020302D983421C4607D8421E99426B
:1028600008D011F8014B02F8014FF8E783189A1AC3
:102870009A4200D110BD14F8011D03F8011DF7E7BD
:1028800038B50546002945D051F8043C0C1F002BF3
:10289000B8BFE41800F0D2F81F4A1368104633B9E5
:1028A000636014602846BDE8384000F0CDB8A3420C
:1028B0000CD921686218934204BF1A685B68636090
:1028C00004BF521822600460ECE713465A680AB14C
:1028D000A242FAD919685818A0420BD120680144C5
:1028E000581882421960DDD1106852685A6001445C
:1028F0001960D7E702D90C232B60D3E72068211891
:102900008A4204BF11685268626004BF09182160DE
:102910005C60C7E738BD00BF04010020F8B5CD1CDE
:1029200025F0030508350C2D38BF0C25002D064673
:1029300001DBA94203D90C2333600020F8BD00F06D
:102940007DF821490A6814469CB9204F3B6823B999
:102950002146304600F062F838602946304600F0E3
:102960005DF8431C23D10C233360304600F06CF833
:10297000E3E723685B1B17D40B2B03D923601C44AC
:10298000256004E06368A2420CBF0B6053603046D0
:1029900000F05AF804F10B00231D20F00700C21AC2
:1029A000CCD01B1AA350C9E722466468CCE7C41CEC
:1029B00024F00304A042E3D0211A304600F02EF8A0
:1029C0000130DDD1CFE700BF040100200801002065
:1029D000F8B5074614460E4621B91146BDE8F84041
:1029E000FFF79CBF22B9FFF74BFF25462846F8BDED
:1029F00000F030F8A0420FD221463846FFF78EFF94
:102A000005460028F2D031462246FFF711FF314635
:102A10003846FFF735FFE9E73546E7E738B5064CB6
:102A20000023054608462360FFF7CCF8431C02D17B
:102A3000236803B12B6038BD10010020014800F06D
:102A400011B800BFC4010020014800F00CB800BF5D
:102A5000C401002051F8043C181F002BBCBF0B58C8
:102A6000C0187047704770472E2E2F7379737465A6
:102A70006D2F7372632F73746D333266342D6861FA
:102A80006C2F73746D3332663478785F68616C5F75
:102A9000636F727465782E63000000002E2E2F7312
:102AA000797374656D2F7372632F73746D3332662F
:102AB000342D68616C2F73746D3332663478785FAF
:102AC00068616C5F6770696F2E6300002E2E2F7334
:102AD000797374656D2F7372632F73746D333266FF
:102AE000342D68616C2F73746D3332663478785F7F
:102AF00068616C5F6932632E6300000000000000B3
:102B00000102030401020304060708092E2E2F7395
:102B1000797374656D2F7372632F73746D333266BE
:102B2000342D68616C2F73746D3332663478785F3E
:102B300068616C5F7263632E630000002E2E2F733A
:102B4000797374656D2F7372632F73746D3332668E
:102B5000342D68616C2F73746D3332663478785F0E
:102B600068616C5F75736172742E630061626F726D
:102B70007428292C2065786974696E672E2E2E00C2
:102B80006173736572745F706172616D282920666C
:102B900061696C65643A2066696C65202225732240
:102BA0002C206C696E652025640A000053746163F3
:102BB0006B206672616D653A0A0000002052302079
:102BC0003D2020253038580A0000000020523120D6
:102BD0003D2020253038580A0000000020523220C5
:102BE0003D2020253038580A0000000020523320B4
:102BF0003D2020253038580A000000002052313294
:102C0000203D20253038580A00000000204C52207A
:102C10003D2020253038580A000000002050432075
:102C20003D2020253038580A000000002050535223
:102C3000203D20253038580A000000004653522F0E
:102C40004641523A0A0000002043465352203D209C
:102C500020253038580A00002048465352203D2095
:102C600020253038580A00002044465352203D2089
:102C700020253038580A00002041465352203D207C
:102C800020253038580A0000204D4D464152203D45
:102C900020253038580A00002042464152203D206D
:102CA00020253038580A00004D6973630A0000007F
:102CB000204C522F4558435F52455455524E3D20AB
:102CC000253038580A0000005B486172644661751F
:102CD0006C745D0A000000005B4275734661756CA0
:102CE000745D0A005B55736167654661756C745D60
:102CF0000A000000000000000000000001020304C0
:102D0000060708095472616E736D697373696F6E9B
:102D100020537461727465640D0A0000232D302BFA
:102D20002000686C4C0065666745464700303132CC
:102D30003334353637383941424344454600303123
:0F2D400032333435363738396162636465660083
:102D50007856341280000020000000000024F400A7
:102D6000140000200000000000000000000000002F
:102D70000000000000000000000000000000000053
:102D80000000000000000000000000000000000043
:102D90000000000000000000000000000000000033
:102DA0000000000000000000000000000000000023
:102DB0000000000000000000000000000000000013
:082DC000000000003254769877
:04000005080001AD41
:00000001FF
