:020000040800F2
:1000000000000320DD020008E3020008E702000808
:10001000590300085D030008A50300080000000064
:10002000000000000000000000000000ED030008D8
:10003000F103000800000000F5030008F9030008C0
:10004000090400080904000809040008090400085C
:10005000090400080904000809040008090400084C
:10006000090400080904000809040008090400083C
:10007000090400080904000809040008090400082C
:10008000090400080904000809040008090400081C
:10009000090400080904000809040008090400080C
:1000A00009040008090400080904000809040008FC
:1000B00009040008090400080904000809040008EC
:1000C00009040008090400080904000809040008DC
:1000D00009040008090400080904000809040008CC
:1000E00009040008090400080904000809040008BC
:1000F00009040008090400080904000809040008AC
:10010000090400080904000809040008090400089B
:10011000090400080904000809040008090400088B
:10012000090400080904000809040008090400087B
:10013000090400080904000809040008090400086B
:10014000090400080904000809040008090400085B
:10015000090400080904000809040008090400084B
:10016000090400080904000809040008090400083B
:100170000904000809040008090400080000000040
:10018000090400080904000809040008090400081B
:10019000090400080904000809040008090400080B
:1001A00009040008090400080904000800B583B028
:1001B00000F04CFE384B394A1360394A1360394914
:1001C00000E02146384B99420BD20A684B6801F196
:1001D0000C0488689842F4D952F8041B43F8041BB5
:1001E000F8E72E4B1A68314B9A4200D0FEE72C4BB1
:1001F0001A682F4B9A42F9D1274B2E4A13602E4A88
:1002000013602E4A05E0002043F8040B9A42FAD806
:100210000A462B4B9A4204D2114651F8083B5268C9
:10022000F4E7244B1B6813B9234B1B6803B1FEE7AB
:1002300000F060FF694601A800F098FD214C224BB8
:10024000E41AA410002504E01F4B53F8253098470A
:100250000135AC42F8DC1D4C1D4BE41AA4100025FE
:1002600004E01B4B53F8253098470135AC42F8DCCD
:100270000099019800F046FF0546164C164BE41A0B
:10028000A41004E0013C144B53F824309847002C90
:10029000F8DC284600F03CFDBABADECA00000020B7
:1002A000740000200C04000824040008785634125E
:1002B00032547698780000202001002024040008A1
:1002C000340400083404000834040008340400082E
:1002D00034040008340400083404000808B5FFF7AB
:1002E00065FF00BEFEE71EF0040F0CBFEFF30880B1
:1002F000EFF309807146414A10472DE9F04182B081
:1003000004468846124B5E6B9F6B9D6A1B6B13F015
:10031000020F03D00E4BDB6A002B0CDB0D4800F004
:1003200037FDCDF800803B4632462946204600F096
:1003300099FD00BEFEE74BF6AB6100F00DFE002814
:10034000ECD0034B4FF00042DA6202B0BDE8F0811E
:1003500000ED00E0081C000800BEFEE71EF0040FE0
:100360000CBFEFF30880EFF309807146244A104771
:100370002DE9F04182B004468846084B5E6B9F6BC6
:100380009D6A074800F004FDCDF800803B463246E8
:100390002946204600F066FD00BEFEE700ED00E0C5
:1003A000181C00081EF0040F0CBFEFF30880EFF3D9
:1003B00009807146134A10472DE9F04182B0044686
:1003C0008846084B5E6B9F6B9D6A074800F0E0FC17
:1003D000CDF800803B4632462946204600F042FDDB
:1003E00000BEFEE700ED00E0241C000800BEFEE7B2
:1003F00000BEFEE700BEFEE770470000FB020008FB
:0C04000071030008B903000800BEFEE70D
:10040C00781C00080000002078000020781C0008F0
:10041C0000000010000000107800002024010020D3
:08042C000000001000000010A8
:1004400010B50446074B1868074BA3FB0030800922
:1004500000F090F8002221464FF0FF3000F044F801
:10046000002010BD0C000020D34D621008B50B4BCE
:100470001A6842F400721A601A6842F480621A60C4
:100480001A6842F480721A60032000F00FF80F20FF
:10049000FFF7D6FF00F037FE002008BD003C024009
:1004A000014B1868704700BF0C01002010B50446CE
:1004B000C31E042B0FD80A4AD36823F4E0631B043D
:1004C0001B0C240204F4E064234343F0BF6343F4B1
:1004D0000033D36010BDA421024800F04FFCEAE7CE
:1004E00000ED00E0381A000870B505460C461646C7
:1004F0000F2A0FD80F2C12D81B4BDB68C3F3022333
:10050000C3F10702042A28BF0422191D06290BD9AA
:10051000033B0AE0BC21154800F030FCEAE7BD21AE
:10052000124800F02BFCE7E700234FF0FF3101FAFF
:1005300002F224EA02049C4001FA03F326EA0306CD
:100540003443002D08DB2401E4B205F1604505F5D4
:10055000614585F8004370BD05F00F052401E4B244
:10056000034B5C55F7E700BF00ED00E0381A0008C8
:1005700014ED00E00138B0F1807F0AD2064B5860DC
:10058000064AF02182F823100020986007221A60A2
:1005900070470120704700BF10E000E000ED00E070
:1005A00010B50446042800D038B9042C0BD0094AF1
:1005B000136823F00403136010BD40F2B311064822
:1005C00000F0DCFBF1E7034A136843F00403136017
:1005D000F2E700BF10E000E0381A000830B583B041
:1005E000044603680F2B29D8236813F0010F3DD070
:1005F0006368012B01D9052B25D1A24B9B6803F021
:100600000C03042B29D09F4B9B6803F00C03082B91
:100610001ED022799C4B1A706368002B50D0FFF7D4
:100620003FFF0546974B1B6813F4003F1ED1FFF7B1
:1006300037FF401B6428F5D90320E3E1F5219348F7
:1006400000F09CFBD0E7FA21904800F097FBD4E73C
:100650008C4B5B6813F4800FDBD08A4B1B6813F460
:10066000003F03D06368002B00F0C781236813F0BC
:10067000020F5CD0E368012B31D823691F2B34D8DB
:10068000804B9B6813F00C0F3AD07E4B9B6803F0B5
:100690000C03082B2FD0E368002B73D07C4B012276
:1006A0001A60FFF7FDFE0546764B1B6813F0020F3C
:1006B00059D1FFF7F5FE401B0228F5D90320A1E12F
:1006C000FFF7EEFE05466F4B1B6813F4003FCDD0DD
:1006D000FFF7E6FE401B6428F5D9032092E14FF4B2
:1006E00096716A4800F04AFBC7E740F22D1167484F
:1006F00000F044FBC4E7634B5B6813F4800FCAD17E
:10070000604B1B6813F0020F03D0E368012B40F02D
:1007100076815C48036823F0F8032169F82292FA95
:10072000A2F2B2FA82F201FA02F2134303602368E2
:1007300013F0080F50D06369012B35D86369002B83
:1007400038D0544B01221A60FFF7AAFE05464D4BE4
:100750005B6F13F0020F3FD1FFF7A2FE401B022890
:10076000F5D903204EE14748036823F0F8032169D7
:10077000F82292FAA2F2B2FA82F201FA02F21343DA
:100780000360D4E7424B00221A60FFF789FE05465A
:100790003C4B1B6813F0020FC9D0FFF781FE401BD2
:1007A0000228F5D903202DE140F26D11374800F001
:1007B000E5FAC3E7374B00221A60FFF771FE0546E2
:1007C000304B5B6F13F0020F06D0FFF769FE401B42
:1007D0000228F5D9032015E1236813F0040F5FD038
:1007E000A368012B01D9052B1FD100230193254BB1
:1007F0001A6C42F080521A641B6C03F08053019310
:10080000019B254A136843F480731360FFF748FE89
:100810000546214B1B6813F4807F0CD1FFF740FE87
:10082000401B0228F5D90320ECE040F2971117484D
:1008300000F0A4FAD9E7227A184B1A70A36883B1A2
:10084000FFF72EFE05460F4B1B6F13F0020F27D14B
:10085000FFF726FE401B41F288339842F3D903206C
:10086000D0E0FFF71DFE0546064B1B6F13F0020F8D
:1008700016D0FFF715FE401B41F288339842F3D99A
:100880000320BFE000380240023802407C1A000812
:1008900000004742800E474200700040703802401E
:1008A000A369022B39D8A369002B00F0AA80574A0C
:1008B000926802F00C02082A00F0A680022B40F099
:1008C0008880E36913B1B3F5800F2CD1236A3F2BE5
:1008D0002FD8636A323BB3F5BF7F30D8A36A022BAF
:1008E00005D0042B03D0062B01D0082B2DD1E36AB1
:1008F000043B0B2B2FD8464B00221A60FFF7D0FD8C
:100900000546424B1B6813F0007F2AD0FFF7C8FD55
:10091000401B0228F5D9032074E04FF4E6713D48EE
:1009200000F02CFABFE740F2D5113A4800F026FA61
:10093000CCE74FF4EB71374800F020FAC9E740F2FA
:10094000D711344800F01AFAC8E74FF4EC71314877
:1009500000F014FACBE740F2D9112E4800F00EFA5D
:10096000C9E7E369226A1343616A47F6C07292FAE3
:10097000A2F2B2FA82F201FA02F21343A26A520818
:10098000013A4FF4403191FAA1F1B1FA81F18A4074
:100990001343E16A4FF0706292FAA2F2B2FA82F265
:1009A00001FA02F21343194A5360194B01221A60EB
:1009B000FFF776FD0446154B1B6813F0007F06D148
:1009C000FFF76EFD001B0228F5D903201AE0002076
:1009D00018E00F4B00221A60FFF762FD04460B4B34
:1009E0001B6813F0007F06D0FFF75AFD001B02289A
:1009F000F5D9032006E0002004E0012002E00120F8
:100A000000E0002003B030BD0120FBE700380240C9
:100A1000600047427C1A0008214B9B6803F00C03DE
:100A2000042B38D0082B38D11D4B586800F03F00FC
:100A30005B6813F4800F1ED01A4AB2FBF0F2184B19
:100A4000586847F6C073184093FAA3F3B3FA83F3D8
:100A5000D84000FB02F0124B5B6803F440334FF4C4
:100A6000403292FAA2F2B2FA82F2D34001335B0032
:100A7000B0FBF3F070470C4AB2FBF0F2084B586839
:100A800047F6C073184093FAA3F3B3FA83F3D84040
:100A900000FB02F0DFE7034870470348704700BFE0
:100AA0000038024000127A000024F40070B50446B9
:100AB0000D460368013B0E2B5ED80F2D62D88C4B80
:100AC0001B6803F00F03AB4208D2EBB2884A1370E5
:100AD000136803F00F03AB4240F00481236813F066
:100AE000020F18D0A3687BB1802B0DD0902B0BD0B8
:100AF000A02B09D0B02B07D0C02B05D0D02B03D012
:100B0000E02B01D0F02B43D17A4A936823F0F00315
:100B1000A1680B439360236813F0010F7FD06368D3
:100B2000032B3BD86368012B3ED09A1E012A42D981
:100B3000704A126812F0020F00F0D6806D498A6880
:100B400022F0030213438B60FFF7AAFC064663689A
:100B5000012B37D0022B44D0032B51D0654B9B681F
:100B600013F00C0F5BD0FFF79BFC801B41F2883326
:100B70009842F3D90320A8E040F237215E4800F004
:100B8000FDF89AE74FF40E715B4800F0F7F896E72E
:100B900040F24F21584800F0F1F8B5E740F25621F5
:100BA000554800F0EBF8BDE7524A126812F4003FD6
:100BB000C4D1012089E04F4A126812F0007FBDD1F4
:100BC000012082E04B4B9B6803F00C03042B26D0E2
:100BD000FFF766FC801B41F288339842F2D903206C
:100BE00073E0444B9B6803F00C03082B17D0FFF70E
:100BF00057FC801B41F288339842F2D9032064E00D
:100C00003C4B9B6803F00C030C2B08D0FFF748FC0F
:100C1000801B41F288339842F2D9032055E0344BCF
:100C20001B6803F00F03AB4207D9EAB2304B1A70CE
:100C30001B6803F00F03AB4258D1236813F0040F75
:100C400014D0E3685BB1B3F5805F08D0B3F5A05F63
:100C500005D0B3F5C05F02D0B3F5E05F36D1254AC9
:100C6000936823F4E053E1680B439360236813F027
:100C7000080F15D023695BB1B3F5805F08D0B3F5D9
:100C8000A05F05D0B3F5C05F02D0B3F5E05F23D11C
:100C9000184A936823F46043216943EAC1039360CF
:100CA000FFF7BAFE134B9B6803F0F003F02292FAB1
:100CB000A2F2B2FA82F2D340104AD35CD840104B71
:100CC00018600F20FFF7BCFB002070BD4FF42D71A2
:100CD000094800F053F8C2E740F2BB21064800F093
:100CE0004DF8D5E70120F0E70120EEE70120ECE721
:100CF000003C0240003802407C1A00086C1A0008D0
:100D00000C000020014B1868704700BF0C00002049
:100D1000FEE7000008B5034800F054F80120FFF793
:100D2000F7FF00BFAC1A000808B503460C4A12686A
:100D30005AB10B4A1068033323F003030344094AF2
:100D4000934206D8064A136008BD054A0649116059
:100D5000EFE700F0D9F90C2303604FF0FF30F3E721
:100D60007C00002000FC02202401002001230360FD
:100D7000014B0B60704700BF0400002008B50A4615
:100D80000146024800F004F8FFF7C4FFC01A00084B
:100D90000FB400B583B004AB53F8042B019380214A
:100DA000074800F0EBF9002804DC03B05DF804EB21
:100DB00004B070470146024800F044F8F5E700BF70
:100DC0008400002010B5044600F0A4F90146204636
:100DD00000F038F80121024800F034F810BD00BFDF
:100DE000841B00082DE9F04385B004460F464356A6
:100DF00033BB042528462146ABBE0446384605B021
:100E0000BDE8F08304AA1344002203F8102C4FF02D
:100E10000408E94640464946ABBE8046761B002E94
:100E2000ECD03546102E28BF10250023AB42E9D266
:100E300014F9011B04AA1A4402F8101C0133F5E747
:100E40000E46ECE708B5FFF7CDFF08BD08B500F08A
:100E500093F8024A024B9A6008BD00BF00000008E8
:100E600000ED00E0F8B504460D4617461E4627483B
:100E7000FFF78EFF21682648FFF78AFF6168254843
:100E8000FFF786FFA1682448FFF782FFE168234847
:100E9000FFF77EFF21692248FFF77AFF6169214849
:100EA000FFF776FFA1692048FFF772FFE1691F484D
:100EB000FFF76EFF1E48FFF76BFF29461D48FFF73F
:100EC00067FF1D4CE16A1D48FFF762FF216B1C485C
:100ED000FFF75EFFE16B1B48FFF75AFF15F0800F2D
:100EE0000AD115F4004F0CD11748FFF751FF0699AE
:100EF0001648FFF74DFFF8BD39461548FFF748FF84
:100F0000EFE731461348FFF743FFEDE7EC1A00081F
:100F1000FC1A00080C1B00081C1B00082C1B0008F6
:100F20003C1B00084C1B00085C1B00086C1B0008E5
:100F30007C1B0008881B000800ED00E0981B0008DF
:100F4000A81B0008B81B0008E81B0008F01B0008DD
:100F5000C81B0008D81B000883691A888A4201D080
:100F6000002070470268033A012A01D90020704727
:100F700002338361012070470C4B1A6842F0010272
:100F80001A60002199601A6822F0847222F480327B
:100F90001A60074A5A601A6822F480221A60D960DF
:100FA000044B4FF000629A60704700BF0038024067
:100FB0001030002400ED00E0224B9B6803F00C038E
:100FC000042B14D0082B16D01BB11F4B1F4A1A60DC
:100FD00002E01D4B1D4A1A601A4B9B68C3F30313B2
:100FE0001B4AD15C184A1368CB4013607047164BFC
:100FF000184A1A60F0E7134B5A685B6803F03F0326
:1010000012F4800F13D0134AB2FBF3F20D4B5B685E
:10101000C3F3881303FB02F30A4A5268C2F3014286
:1010200001325200B3FBF2F3074A1360D4E7074AD8
:10103000B2FBF3F2034B5B68C3F3881303FB02F3C9
:10104000EAE700BF003802400C0000200024F40052
:10105000341C000800127A0030B595B000240194C9
:10106000214B1A6C42F080521A641B6C03F08053BF
:101070000193019B02941D4B1A6842F440421A608E
:101080001B6803F440430293029B012308930993D6
:101090004FF480030F93082310934FF4A873119318
:1010A00002251295072313930E9508A8FFF796FAC9
:1010B0000F230393049505944FF4A05306934FF424
:1010C00080530793052103A8FFF7F0FCFFF71AFEF2
:1010D000074BA3FB00308009FFF74CFA0420FFF711
:1010E0005FFA15B030BD00BF00380240007000400C
:1010F000D34D621008B5FFF7B9F9FFF7ADFFFFF761
:101100005BFF08BDFEE77047014B1868704700BFE2
:1011100010000020034613F8012B002AFBD1181AF7
:101120000138704730B5141E05469BB0184605DAE5
:101130008B232B604FF0FF301BB030BD4FF4027398
:10114000ADF80C3014BF04F1FF332346029305932E
:101150004FF6FF7300910491ADF80E3002461E9BCE
:101160006946284600F074F8431CBCBF8B232B60F3
:10117000002CE1D0009B00221A70DDE707B5009338
:1011800013460A46014603480068FFF7CBFF03B049
:101190005DF804FB100000202DE9F0478E689E42A8
:1011A00082460C469146984638D8B1F80CC01CF4DB
:1011B000906F31D062692568096902EB42026F1AAB
:1011C00002EBD272013355103B449D4238BF1D469D
:1011D0001CF4806F30D0294600F088FB064650B9D9
:1011E0000C23CAF80030A38943F04003A3814FF0D9
:1011F000FF30BDE8F0873A46216900F001FBA38982
:1012000023F4906343F08003A381266165613E442B
:10121000ED1B2660A5604646464500D94646324647
:101220004946206800F0FAFAA3689B1BA360236874
:101230001E4426600020DCE72A4600F0B1FB06468B
:101240000028E2D12169504600F002FBC8E7000007
:101250002DE9F04F1E468B891B069DB007460D46B3
:1012600014460ED50B6963B9402100F03FFB28609E
:10127000286120B90C233B604FF0FF30C9E04023C8
:101280006B610023099320238DF82930DFF89C91AE
:10129000039630238DF82A304FF0010A23461E466C
:1012A00013F8012B0AB1252AF9D1B6EB040B0BD0A8
:1012B0005B46224629463846FFF76EFF013000F0B4
:1012C000A380099B5B4409933378002B00F09C803A
:1012D00000234FF0FF32CDE9052301360493079335
:1012E0008DF853301A933446052214F8011B4F48E9
:1012F00000F036FA049BC0B9D90644BF20228DF80D
:1013000053201A0744BF2B228DF8532032782A2A03
:1013100013D0079A344600200A26214611F8013BD3
:10132000303B092B4BD970B914E0A0EB09000AFA45
:1013300000F0184304902646D5E7039A111D126861
:101340000391002A01DB079204E0524243F00203BA
:101350000792049323782E2B0CD163782A2B33D158
:10136000039B1A1D1B680392002BB8BF4FF0FF337D
:10137000023405932E4E21780322304600F0F0F916
:1013800038B14023801B03FA00F0049B034301346F
:10139000049314F8011B27488DF82810062200F04A
:1013A000DFF9002838D0244B13BB039B073323F00D
:1013B000070308330393099B434409936EE706FB35
:1013C000023201200C46A8E7002301340593194698
:1013D0000A26204610F8012B303A092A03D9002B9F
:1013E000C8D00591C6E706FB012101230446F0E7BA
:1013F00003AB00932A46114B04A93846AFF3008093
:10140000B0F1FF3F8046D6D1AB895B063FF534AFE4
:1014100009981DB0BDE8F08F03AB00932A46074B37
:1014200004A9384600F082F8EAE700BF441C00082F
:101430004A1C00084E1C000800000000991100081A
:101440002DE9F04791461F468A680B69DDF8208038
:101450009342B8BF1346C9F8003091F843200646BE
:101460000C4612B10133C9F800302368990642BF17
:10147000D9F800300233C9F80030256815F00605A8
:1014800007D104F1190AE368D9F800209B1AAB428E
:1014900028DC94F843302268003318BF01239206F9
:1014A0002DD404F1430239463046C047013020D0E4
:1014B0002368E568D9F8002003F00603042B08BF71
:1014C000AD1AA36822690CBF25EAE5750025934291
:1014D000C4BF9B1AED184FF000091A344D451AD1BC
:1014E000002008E00123524639463046C04701300B
:1014F00003D14FF0FF30BDE8F0870135C3E7E118B5
:101500005A1C302081F84300224494F8451082F898
:1015100043100233C5E70123224639463046C0470F
:101520000130E6D009F10109D8E700002DE9F043C8
:1015300006460C4601F14300097E85B06E299846A7
:1015400017460C9B00F0BA8024D8632939D00AD8FA
:10155000002900F0C380582900F0918004F1420571
:1015600084F8421035E0642901D06929F6D1256854
:101570001A6815F0800F02F104012CD0126819606E
:10158000002A03DA2D23524284F84330DFF8BCC12D
:101590000A233FE0732900F0A58008D86F2921D0E5
:1015A0007029DBD1226842F02002226003E0752915
:1015B00018D07829D2D1782284F84520DFF890C15C
:1015C00061E01A68111D1960136884F8423004F153
:1015D0004205012393E01268196015F0400F18BF0F
:1015E00012B2CDE7D4F800C01A681CF0800F02F1E7
:1015F00004051D6001D0126803E01CF0400FFAD012
:101600001288DFF848C16F290CBF08230A23002184
:1016100084F843106568A560002DA2BF216821F001
:10162000040121600AB9002D46D00546B2FBF3F152
:1016300003FB112E93421CF80EE005F801ED39D999
:10164000082B0BD12368DA0708D5236962689A4210
:10165000DEBF302305F8013C05F1FF35401B20615A
:10166000CDF800803B4603AA21463046FFF7E8FE4E
:10167000013049D14FF0FF3005B0BDE8F083DFF80D
:10168000CCC084F845101D68216855F8042B1D60F6
:101690000D060BD5CD0744BF41F0200121601AB9DA
:1016A000236823F0200323601023B0E74B0648BFD4
:1016B00092B2EFE70A46B9E70546C1E71A68D4F8DF
:1016C00000C06169151D1D601CF0800F136801D0FA
:1016D000196003E01CF0400FFAD019800023236149
:1016E0000546BDE71A68111D19601568626800217A
:1016F000284600F035F808B1401B6060636823613C
:10170000002384F84330ABE723692A463946304644
:10171000C0470130AED023689B0713D4E068039B19
:101720009842B8BF1846A7E701234A4639463046D3
:10173000C04701309ED00135E368039A9B1AAB4243
:10174000F2DCEBE7002504F11909F5E7551C000868
:10175000661C0008000000000000000000000000FF
:1017600001F0FF01102A2BDB10F0070F08D010F852
:10177000013B013A8B422DD010F0070F42B3F6D156
:10178000F0B441EA012141EA014122F007047FF06F
:1017900000070023F0E80256083C85EA010586EAC6
:1017A000010685FA47F5A3FA87F586FA47F6A5FA02
:1017B00087F68EB9EED1F0BC01F0FF0102F007020E
:1017C00032B110F8013B013A83EA010313B1F8D1B9
:1017D0000020704701387047002D06BF354603389A
:1017E000073815F0010F07D1013015F4807F02BFD3
:1017F000013015F4C03F0130F0BC0138704700BF24
:101800000A44914200F1FF3300D1704710B511F83E
:10181000014B03F8014F9142F9D110BD884210B538
:1018200001EB020302D983421C4607D8421E9942AB
:1018300008D011F8014B02F8014FF8E783189A1A03
:101840009A4200D110BD14F8011D03F8011DF7E7FD
:1018500038B50546002945D051F8043C0C1F002B33
:10186000B8BFE41800F0D2F81F4A1368104633B925
:10187000636014602846BDE8384000F0CDB8A3424C
:101880000CD921686218934204BF1A685B686360D0
:1018900004BF521822600460ECE713465A680AB18C
:1018A000A242FAD919685818A0420BD12068014405
:1018B000581882421960DDD1106852685A6001449C
:1018C0001960D7E702D90C232B60D3E720682118D1
:1018D0008A4204BF11685268626004BF091821601F
:1018E0005C60C7E738BD00BF04010020F8B5CD1C1F
:1018F00025F0030508350C2D38BF0C25002D0646B4
:1019000001DBA94203D90C2333600020F8BD00F0AD
:101910007DF821490A6814469CB9204F3B6823B9D9
:101920002146304600F062F838602946304600F023
:101930005DF8431C23D10C233360304600F06CF873
:10194000E3E723685B1B17D40B2B03D923601C44EC
:10195000256004E06368A2420CBF0B605360304610
:1019600000F05AF804F10B00231D20F00700C21A02
:10197000CCD01B1AA350C9E722466468CCE7C41C2C
:1019800024F00304A042E3D0211A304600F02EF8E0
:101990000130DDD1CFE700BF0401002008010020A5
:1019A000F8B5074614460E4621B91146BDE8F84081
:1019B000FFF79CBF22B9FFF74BFF25462846F8BD2D
:1019C00000F030F8A0420FD221463846FFF78EFFD4
:1019D00005460028F2D031462246FFF711FF314676
:1019E0003846FFF735FFE9E73546E7E738B5064CF7
:1019F0000023054608462360FFF796F9431C02D1F1
:101A0000236803B12B6038BD10010020014800F0AD
:101A100011B800BF18010020014800F00CB800BF49
:101A20001801002051F8043C181F002BBCBF0B58B4
:101A3000C0187047704770472E2E2F7379737465E6
:101A40006D2F7372632F73746D333266342D68613A
:101A50006C2F73746D3332663478785F68616C5FB5
:101A6000636F727465782E63000000000000000050
:101A70000102030401020304060708092E2E2F7336
:101A8000797374656D2F7372632F73746D3332665F
:101A9000342D68616C2F73746D3332663478785FDF
:101AA00068616C5F7263632E6300000061626F7235
:101AB0007428292C2065786974696E672E2E2E0093
:101AC0006173736572745F706172616D282920663D
:101AD00061696C65643A2066696C65202225732211
:101AE0002C206C696E652025640A000053746163C4
:101AF0006B206672616D653A0A000000205230204A
:101B00003D2020253038580A0000000020523120A6
:101B10003D2020253038580A000000002052322095
:101B20003D2020253038580A000000002052332084
:101B30003D2020253038580A000000002052313264
:101B4000203D20253038580A00000000204C52204B
:101B50003D2020253038580A000000002050432046
:101B60003D2020253038580A0000000020505352F4
:101B7000203D20253038580A000000004653522FDF
:101B80004641523A0A0000002043465352203D206D
:101B900020253038580A00002048465352203D2066
:101BA00020253038580A00002044465352203D205A
:101BB00020253038580A00002041465352203D204D
:101BC00020253038580A0000204D4D464152203D16
:101BD00020253038580A00002042464152203D203E
:101BE00020253038580A00004D6973630A00000050
:101BF000204C522F4558435F52455455524E3D207C
:101C0000253038580A0000005B48617264466175EF
:101C10006C745D0A000000005B4275734661756C70
:101C2000745D0A005B55736167654661756C745D30
:101C30000A00000000000000000000000102030490
:101C400006070809232D302B2000686C4C006566C0
:101C500067454647003031323334353637383941FD
:101C60004243444546003031323334353637383913
:071C70006162636465660018
:101C78007856341280000020000000000024F40090
:101C88001400002000000000000000000000000018
:101C9800000000000000000000000000000000003C
:101CA800000000000000000000000000000000002C
:101CB800000000000000000000000000000000001C
:101CC800000000000000000000000000000000000C
:101CD80000000000000000000000000000000000FC
:081CE800000000003254769860
:04000005080001AD41
:00000001FF
